:020000040000FA
:103000000CEF3FF01FEF3FF026EF3FF029EF3FF0CE
:103010002AEF3FF02EEF3FF03DEF3FF040EF3FF063
:1030200039EF3FF03CEF3FF043EF3FF036EF3FF03A
:1030300035EF3FF031EF3FF034EF3FF080EF19F024
:1030400081EF19F082EF19F083EF19F038EF3FF0BC
:1030500037EF3FF084EF19F085EF19F086EF19F0A4
:103060001200000012000000120000001200000018
:103070001200000012000000120000001200000008
:10308000FFFFFFFFFFFFFFFFFFFFFFFFFFFFFFFF50
:10309000FFFFFFFFFFFFFFFFFFFFFFFFFFFFFFFF40
:10330000120012001200120012001200120001EE50
:1033100000F0080E066EEE68062EFDD701EE08F0EE
:10332000080E066EEE6A062EFDD7000EC4EC16F0EF
:10333000036E000E68EC16F00001176B120000011E
:103340001729070BC4EC16F0036E000E68EC16F09C
:103350001200000E5CEC16F021EE00F00001175197
:10336000DBCF0BF003C0DBFF21EE08F01751D926AD
:103370000B500318DF121729070B176F12000001FB
:10338000186B01EE08F01851E926EF5010E0EFB08D
:1033900013D8EFB214D8EFB415D8EFB616D8EFB8EB
:1033A00017D8EFBA18D8EFBC19D8EFBE1AD8182B17
:1033B000070E1865E6D71200EF90000E14D0EF92BA
:1033C000010E11D0EF94020E0ED0EF96030E0BD02B
:1033D000EF98040E08D0EF9A050E05D0EF9C060E6C
:1033E00002D0EF9E070E156F01EE00F01851E9268E
:1033F0001551C6EC16F0EF14D8A4010E166E046E2B
:103400001851146F080DF3501525036E0EEC1AF0C9
:1034100001EE08F000011851E926120003C076F011
:1034200004C077F03AEF3FF0BA0EF66E380EF76E42
:103430009EEC16F0C40EF66E380EF76E9EEC16F08B
:10344000D00EF66E380EF76E9EEC16F0E20EF66EAB
:10345000380EF76E9EEC16F01080E86A036EFF0ED1
:10346000CEEC16F0032A120E0362F9D712001250A6
:10347000020D8E0EF324F66E340EF420F76E090062
:10348000F5CF03F00900F5CF04F0CDEF36F00FD201
:103490000FD20FD20FD20FD20FD20FD20FD20FD224
:1034A0000FD20FD20FD20FD20FD20FD20FD20FD214
:1034B0000FD20FD20FD20FD20FD20FD20FD20EEEE9
:1034C0000E180D4D0C8E0BDA0B2F0A8F09F70968B9
:1034D00008E1086107E90777070C06A7064705ED2D
:1034E0000598054704FC04B40470043103F403BCDC
:1034F00003860353032402F602CC02A4027E025A7E
:103500000238021801FA01DE01C301AA0192017B0F
:1035100001660152013F012D011C010C00FD00EF6D
:1035200000E100D500C900BE00B300A9009F0096CD
:10353000008E0086007F00780071006A0064005FE2
:10354000005900540050004B00470043003F003C2E
:10355000003800350032002F002D002A00280026F8
:10356000002400220020001E001C001B001900186F
:103570000016001500140013001200110010000FB7
:10358000000E000D000D000C000B000B000A000ED9
:10359000396E400E646E3A6EAAEC1BF0010E396E65
:1035A000010E656E3A6EAAEC1BF0020E396E420EE9
:1035B000666E3A6EAAEC1BF0030E396E090E676E4A
:1035C0003A6EAAEC1BF0040E396E440E686E3A6E29
:1035D000AAEC1BF0050E396E020E696E3A6EAAEC6B
:1035E0001BF0060E396E040E6A6E3A6EAAEC1BF0E2
:1035F000070E396EF80E6B6E3F0E6B103A6EAAEC2A
:103600001BF0080E396E0C0E6C6E3A6EAAEC1BF0B5
:10361000090E396E0C0E6D6E3A6EAAEC1BF00A0E96
:10362000396E0C0E6E6E3A6EAAEC1BF00B0E396EF4
:103630000F0E6F6E3A6EAAEC1BF00C0E396E0F0E69
:10364000706E3A6EAAEC1BF00D0E396E010E716EA3
:103650003A6EAAEC1BF00E0E396EAA0E726E3A6E1E
:10366000AAEC1BF073EC3EF07BEC3EF083EC3EF0FA
:10367000010E7A6ED3EC3EF0000E736E000E746E87
:10368000000E756E010E036E03C000F203C001F25E
:1036900003C002F203C003F203C004F203C005F248
:1036A00003C006F203C007F2800E236E246E256E5F
:1036B000070E266E276E286E000E306E010E316EDC
:1036C000020E326E3F0E226EF80E206E796A070EE1
:1036D000336E346A356A386A000EEEEC16F02E0E40
:1036E000036E03C003F303C004F303C005F303C078
:1036F00006F303C007F303C008F303C009F303C0D4
:103700000AF3036A03C001F33E6A7D6A7E6A000E13
:103710004D6E4E6A536A506A516A526A4F6A566ACF
:10372000616A626A636A796A79823B6A3D6A1200F9
:10373000010E14EC16F01200F29AF294000ED56EFF
:10374000D58E1200200E036E4E0E046E000EBCECE1
:1037500016F01200F29E8B888B8A8B9439B08B8482
:103760008B808B908B9439B28B848B808B908B94D5
:1037700039B48B848B808B908B9439B68B848B80FF
:103780008B908B9439B88B848B808B908B9439BAC7
:103790008B848B808B908B9439BC8B848B808B90AB
:1037A0008B9439BE8B848B808B908B828B948B9285
:1037B0008B988B9A8B888B9A8B943AB08B848B8066
:1037C0008B908B943AB28B848B808B908B943AB491
:1037D0008B848B808B908B943AB68B848B808B9070
:1037E0008B943AB88B848B808B908B943ABA8B8471
:1037F0008B808B908B943ABC8B848B808B908B943A
:103800003ABE8B848B808B908B828B948B928B981F
:103810008B9AF28E12007DA0DDEF24F0010E74620F
:10382000120000C203F0030E036212007D8619EF3E
:103830001CF07E2A7EC07CF0A80EF66E380EF76E65
:103840009EEC16F0FC0EF66E390EF76E9EEC16F03E
:103850005C0E88EC16F07E5092EC16F07F0E7E64C3
:1038600007D37E6A010E3E6E3EC07CF07D961EEF51
:1038700025F00010202020202020202020202020A3
:103880002020202040102020202020202020202028
:103890002020202020201010202020202020202048
:1038A00020202020202020205010202020202020F8
:1038B0002020202020202020202000074D4944499E
:1038C000424F5800400941592D332D3839313200CB
:1038D000101056312E303020524331205B323030C0
:1038E000395D50104259204C454D4F4E484F525370
:1038F00045202020001046312D5041544348204699
:10390000322D54554E45401046332D4D49584552A1
:103910002046342D564F4C2E101046352D454E5610
:10392000454C2046362D4D494449500E46372D56BC
:10393000454C4F432046382D467800104E414D45AA
:103940003A2020202D2D2D2D2D2D2D2D00105B2DDD
:10395000464F524D415454494E473F212D5D001072
:103960005B2D4E4F2042414E535449434B312D5D08
:1039700040034E523A004808494E5445524E414C7D
:103980004907422E5354434B31001010444F3A2004
:10399000205B4C5D205B575D205B465D50104C6F9B
:1039A0006164205772746520466F726D61745010A7
:1039B0004C6F61642057727465202D2D2D2D2D2D97
:1039C00050102D2D2D2D202D2D2D2D202D2D2D2D3B
:1039D0002D2D50102D2D2D2D202D2D2D2D20466FD0
:1039E000726D61745A05573A204F4B005A054C3A94
:1039F000204F4B005A054552524F52005A02463A48
:103A0000001054554E4520434F41525345204649DE
:103A10004E45400443482E41100443482E42500472
:103A200043482E4300064678204142430D012D00B5
:103A30000D0141000E012D000E0142000F012D006D
:103A40000F0143004008544F4E45204142434D0171
:103A50002D004D0141004E012D004E0142004F014D
:103A60002D004F01430010094E4F4953452041425C
:103A700043001D012D001D0141001E012D001E01EE
:103A800042001F012D001F014300500B4E4F4953B0
:103A90004520465245512E005D035B415D005D03AC
:103AA0005B425D005D035B435D000010564F4C556B
:103AB0004D452F414D504C49545544454007544FB6
:103AC0004E45204120001007544F4E452042200013
:103AD0005007544F4E452043200048085B454E5642
:103AE0002E4F4E5D18085B454E562E4F4E5D5808C2
:103AF0005B454E562E4F4E5D48085B56454C435431
:103B0000595D18085B56454C4354595D58085B563F
:103B1000454C4354595D000A454E562E5045524976
:103B20004F44400A454E562E502E46494E451005EC
:103B3000534841504500500A454E562E5B41424382
:103B40005D205B0141005D0142005F0143005B01BC
:103B50002D005D012D005F012D001704646F776E4D
:103B60001707757020646F776E00170864776E20F2
:103B7000636F6E74170964776E20636F6E74320022
:103B8000170664776E2075701707757020636F6E67
:103B90007400170275701708757020636F6E7432A9
:103BA00000104D49444920434820434F4E46494761
:103BB0002E2040104D4944492043482041202020D8
:103BC0002020202010104D49444920434820422005
:103BD00020202020202050104D49444920434820D7
:103BE0004320202020202020000A56454C4F4349E6
:103BF00054592041400A56454C4F434349542042B2
:103C0000100A56454C4F434954592043500A4E4FD1
:103C100049534520524154450006467820504F53A1
:103C2000400846782044454C4159100246785007D8
:103C30004678204441544100150746782053544F9C
:103C4000500015054F4E2020410015054F464620D7
:103C5000410015054F4E2020420015054F464620D5
:103C6000420015054F4E2020430015054F464620C3
:103C70004300150B54756E6520412B44415441009F
:103C8000150B54756E6520412D4441544100150BB0
:103C900054756E6520422B4441544100150B5475F8
:103CA0006E6520422D4441544100150B54756E65DC
:103CB00020432B4441544100150B54756E6520433D
:103CC0002D4441544100150B566F6C2E2041204469
:103CD00041544100150B566F6C2E20422044415434
:103CE0004100150B566F6C2E204320444154410077
:103CF000150B4E6F697365204F4E20204100150B48
:103D00004E6F697365204F4646204100150B4E6F7C
:103D1000697365204F4E20204200150B4E6F69736A
:103D200065204F4646204200150B4E6F6973652093
:103D30004F4E20204300150B4E6F697365204F4690
:103D400046204300150B4E2E4672712E3A302D330D
:103D50003100150A456E762E204F4E202041150A5F
:103D6000456E762E204F46462041150A456E762E2A
:103D7000204F4E202042150A456E762E204F464693
:103D80002042150A456E762E204F4E202043150AFC
:103D9000456E762E204F46462043150B456E762EF7
:103DA0005368703A312D38001509456E762E20463D
:103DB000696E6500150B456E762E20436F61727338
:103DC0006500150B4E6F74652331203D3E20410088
:103DD000150B4E6F74652331203D3E204200150BBC
:103DE0004E6F74652331203D3E204300150B4E6F0E
:103DF00074652332203D3E204100150B4E6F7465E3
:103E00002332203D3E204200150B4E6F7465233255
:103E1000203D3E204300150B4E6F74652333203D3B
:103E20003E204100150B4E6F74652333203D3E202C
:103E30004200150B4E6F74652333203D3E20430036
:103E4000150B476F506F733D3E4441544100010EC6
:103E50007462120000C203F0030E036212007DA41C
:103E600007D07DA012007DB619EF1CF07DA21200D4
:103E700027EC20F003C33FF017EC20F004C33FF021
:103E800017EC20F005C33FF017EC20F006C33FF01D
:103E900017EC20F007C33FF017EC20F008C33FF009
:103EA00017EC20F009C33FF017EC20F00AC33FF0F5
:103EB00017EC20F023C03FF017EC20F024C03FF0B7
:103EC00017EC20F025C03FF017EC20F026C03FF0A3
:103ED00017EC20F027C03FF017EC20F028C03FF08F
:103EE00017EC20F030C03FF017EC20F031C03FF06D
:103EF00017EC20F032C03FF017EC20F033C03FF059
:103F000017EC20F06AC03FF017EC20F06CC03FF0D7
:103F100017EC20F06DC03FF017EC20F06EC03FF0C2
:103F200017EC20F06FC03FF017EC20F070C03FF0AE
:103F300017EC20F07AC03FF017EC20F020C03FF0E3
:103F400017EC20F04DC03FF017EC20F0020EEA6EA7
:103F5000606A7DB431D000D0200E6024E96EEFCFCE
:103F60005FF0200E6024A96E5F50B2EC16F0602A5C
:103F7000200E6062F1D7606A400E6024E96EEFCFD8
:103F80005FF0400E6024A96E5F50B2EC16F0602A1C
:103F9000200E6062F1D7606A600E6024E96EEFCF98
:103FA0005FF0600E6024A96E5F50B2EC16F0602ADC
:103FB000200E6062F1D728D0200E6024E96EEFCF8A
:103FC0005FF05F50BAEC16F0602A200E6062F4D702
:103FD000606A400E6024E96EEFCF5FF05F50BAEC8C
:103FE00016F0602A200E6062F4D7606A600E6024CA
:103FF000E96EEFCF5FF05F50BAEC16F0602A200E4A
:104000006062F4D7606A00D07DA604D0780ECEEC52
:1040100016F00FD4A80EF66E380EF76E9EEC16F062
:10402000E40EF66E390EF76E9EEC16F012007DB4BB
:1040300004D03F50B2EC16F012007FC003F07CC0F9
:1040400004F004063F50BAEC16F07F2A12007DB44B
:1040500006D0000EA96E120EB2EC16F01200036A22
:104060007CC004F00406880EBAEC16F07C50BAEC62
:1040700016F07CC03EF0020E7F6E1200010E7462DC
:10408000120000C203F0030E036212007DA404D0EC
:104090007DA012007DA212007DB409D0000EA96E91
:1040A000B0EC16F0036E120E03625CD10CD0036A02
:1040B0007CC004F00406B8EC16F0036E880E0362B0
:1040C00051D1020E7F6EF29EBFEC21F03FC003F390
:1040D000BFEC21F03FC004F3BFEC21F03FC005F37B
:1040E000BFEC21F03FC006F3BFEC21F03FC007F367
:1040F000BFEC21F03FC008F3BFEC21F03FC009F353
:10410000BFEC21F03FC00AF3BFEC21F03FC023F029
:10411000BFEC21F03FC024F0BFEC21F03FC025F000
:10412000BFEC21F03FC026F0BFEC21F03FC027F0EC
:10413000BFEC21F03FC028F0BFEC21F03FC030F0D1
:10414000BFEC21F03FC031F0BFEC21F03FC032F0B6
:10415000BFEC21F03FC033F0BFEC21F03FC06AF06C
:10416000BFEC21F03FC06CF06CA803D0A3EC3EF094
:1041700002D0A7EC3EF0BFEC21F03FC06DF06DA87F
:1041800003D0ABEC3EF002D0AFEC3EF0BFEC21F040
:104190003FC06EF06EA803D0B3EC3EF002D0B7EC97
:1041A0003EF0BFEC21F03FC06FF00B0E396E6FC0D8
:1041B0003AF0AAEC1BF0BFEC21F03FC070F00C0EFF
:1041C000396E70C03AF0AAEC1BF0BFEC21F03FC092
:1041D0007AF0A1EC2AF0BFEC21F03FC020F020B033
:1041E00003D073EC3EF002D077EC3EF020B203D067
:1041F0007BEC3EF002D07FEC3EF020B403D083ECA9
:104200003EF002D087EC3EF020B603D08BEC3EF0BF
:1042100002D08FEC3EF020B803D093EC3EF002D0F9
:1042200097EC3EF020BA03D09BEC3EF002D09FEC1E
:104230003EF0BFEC21F03FC04DF04DA003D0BBECF1
:104240003EF002D0BFEC3EF04DA203D0C3EC3EF0F6
:1042500002D0C7EC3EF04DA403D0CBEC3EF002D030
:10426000CFEC3EF0020EEA6E606A7DB430D0200ED4
:104270006024A96EB0EC16F05F6E200E6024E96E2B
:104280005FC0EFFF602A200E6062F1D7606A400EC7
:104290006024A96EB0EC16F05F6E400E6024E96EEB
:1042A0005FC0EFFF602A200E6062F1D7606A600E87
:1042B0006024A96EB0EC16F05F6E600E6024E96EAB
:1042C0005FC0EFFF602A200E6062F1D739D01D0E6B
:1042D0006024036E7CC004F00406B8EC16F05F6E38
:1042E000200E6024E96E5FC0EFFF602A200E60623E
:1042F000EED7606A3D0E6024036E7CC004F00406B5
:10430000B8EC16F05F6E400E6024E96E5FC0EFFF00
:10431000602A200E6062EED7606A5D0E6024036E34
:104320007CC004F00406B8EC16F05F6E600E6024EA
:10433000E96E5FC0EFFF602A200E6062EED700D00A
:10434000F28EA80EF66E380EF76E9EEC16F0EC0E9E
:10435000F66E390EF76E9EEC16F07CC03EF072ECF5
:1043600022F01200A80EF66E380EF76E9EEC16F0D4
:10437000F40EF66E390EF76E9EEC16F012007DB458
:1043800004D0B0EC16F03F6E12007FC003F07CC08A
:1043900004F00406B8EC16F03F6E7F2A1200010EFE
:1043A00074628DEF2CF000D000C203F0010E0362A6
:1043B0008DEF2CF000D0000E77628DEF2CF000D046
:1043C00000C303F02F0E036405D000D03A0E036043
:1043D00001D047D0400E036405D000D05B0E0360CF
:1043E00001D03FD05F0E036201D03BD0140E0362B8
:1043F00019D000D02E0E036E03C003F303C004F3E4
:1044000003C005F303C006F303C007F303C008F3BA
:1044100003C009F303C00AF3000E036E03C001F3E7
:104420001EEF25F01D0E036201D005D09D0E036224
:104430008DEF2CF00BD001C303F0070E036202D006
:1044400000D01200032A03C001F3120001C303F0DD
:10445000000E036202D000D01200030603C001F375
:10446000120001C303F00350F80FD8B0F80E080F84
:10447000C8EC16F007D009D00BD00DD00FD011D05A
:1044800013D015D000C303F315D000C304F312D02A
:1044900000C305F30FD000C306F30CD000C307F32D
:1044A00009D000C308F306D000C309F303D000C34A
:1044B0000AF300D0080E01C303F0032488EC16F0C1
:1044C00000C303F0035094EC16F001C303F0032A79
:1044D00003C001F3070E03641200070E036E03C04E
:1044E00001F31200080E88EC16F003C303F003502A
:1044F00094EC16F0090E88EC16F004C303F0035098
:1045000094EC16F00A0E88EC16F005C303F0035085
:1045100094EC16F00B0E88EC16F006C303F0035073
:1045200094EC16F00C0E88EC16F007C303F0035061
:1045300094EC16F00D0E88EC16F008C303F003504F
:1045400094EC16F00E0E88EC16F009C303F003503D
:1045500094EC16F00F0E88EC16F00AC303F003502B
:1045600094EC16F01200000E756E7650C00FD8B0A5
:104570001200400FCAEC16F041EF23F046EF23F093
:104580004DEF23F060EF23F073EF23F083EF23F080
:1045900093EF23F0A3EF23F03CEF23F03CEF23F065
:1045A0003CEF23F03CEF23F0B3EF23F03CEF23F09C
:1045B000C1EF23F041EF23F0C4EF23F0CBEF23F062
:1045C000D0EF23F0D7EF23F0C4EF23F03CEF23F03C
:1045D0003CEF23F0D7EF23F0DEEF23F0E3EF23F0FF
:1045E000E8EF23F0EDEF23F0F2EF23F0F7EF23F005
:1045F000FCEF23F001EF24F006EF24F00BEF24F0A2
:1046000010EF24F015EF24F01AEF24F021EF24F03E
:1046100026EF24F02BEF24F030EF24F035EF24F0D8
:104620003AEF24F03FEF24F044EF24F04BEF24F076
:1046300052EF24F057EF24F05CEF24F061EF24F008
:1046400068EF24F06FEF24F07DEF24F082EF24F088
:1046500087EF24F08CEF24F091EF24F096EF24F014
:104660009BEF24F096EF24F0C4EF24F03CEF23F00E
:10467000C9EF24F0CEEF24F0000E036E03C000F368
:104680001200140E036E03C000F31200020E756ECA
:104690000D0E036E03C000F3120079A052EF23F059
:1046A00059EF23F0030E756E1D0E036E03C000F369
:1046B0001200040E756E9D0E036E03C000F312000F
:1046C00079A065EF23F06CEF23F0020E756E110EEA
:1046D000036E03C000F31200010E756E910E036E9F
:1046E00003C000F31200000E736E000E776212001A
:1046F00079A07DEF23F080EF23F0010E746E12009D
:10470000020E746E1200000E736E000E77621200BD
:1047100079A08DEF23F090EF23F0030E746E12005A
:10472000040E746E1200000E736E000E776212009B
:1047300079A09DEF23F0A0EF23F0050E746E120018
:10474000060E746E1200000E736E000E7762120079
:1047500079A0ADEF23F0B0EF23F0070E746E1200D6
:10476000080E746E1200000E036E03C000F3000EFC
:104770007762BFEF23F0BDEF23F0798012007990CC
:104780001200010E756E1200030E756E1D0E036E83
:1047900003C000F31200500E036E03C000F31200BA
:1047A000090E756E4C0E036E03C000F31200040E6A
:1047B000756E9D0E036E03C000F31200390E036E7A
:1047C00003C000F31200490E036E03C000F3120091
:1047D0004A0E036E03C000F312004E0E036E03C0B8
:1047E00000F312004D0E036E03C000F312004B0ED7
:1047F000036E03C000F312004F0E036E03C000F3FC
:104800001200300E036E03C000F31200370E036E69
:1048100003C000F31200590E036E03C000F3120030
:10482000470E036E03C000F31200560E036E03C062
:1048300000F31200060E756E420E036E03C000F305
:104840001200480E036E03C000F31200550E036EF3
:1048500003C000F31200380E036E03C000F3120011
:10486000350E036E03C000F31200520E036E03C038
:1048700000F31200440E036E03C000F31200580E42
:10488000036E03C000F31200070E756E430E036E35
:1048900003C000F312000A0E756E460E036E03C0CD
:1048A00000F31200540E036E03C000F31200360E24
:1048B000036E03C000F31200330E036E03C000F357
:1048C0001200080E756E570E036E03C000F312003F
:1048D000050E756E410E036E03C000F31200000E4C
:1048E000036E03C000F3000E77627BEF24F079EFD4
:1048F00024F079801200799012005A0E036E03C0E2
:1049000000F31200530E036E03C000F31200450EB5
:10491000036E03C000F31200340E036E03C000F3F5
:104920001200310E036E03C000F31200000E736E0E
:10493000000E746E1200000E7762A1EF24F0A2EF59
:1049400024F01200000E736E79A0A9EF24F0B3EFEB
:1049500024F0742A080E7464C3EF24F0B0EF24F03E
:10496000010E746E12007406FF0E7462BAEF24F02A
:10497000C0EF24F0000E7462C3EF24F0C0EF24F007
:10498000080E746E120012005F0E036E03C000F377
:104990001200510E036E03C000F31200320E036EBC
:1049A00003C000F31200000E756EB3EC22F0000E8F
:1049B00073628BEF2CF0DDEF24F0000E77621CD0D9
:1049C00000D0010E736E7450F70FD8B01200090FAB
:1049D000CAEC16F003EF25F0FFEF24F07FEF26F08E
:1049E00021EF28F04BEF29F0F3EF29F031EF2BF016
:1049F0009DEF2BF09CEF39F0010E736E12003EC05C
:104A00007CF01EEF25F082EC16F0F40EF66E380EF8
:104A1000F76E9EEC16F0060EF66E390EF76E9EECF3
:104A200016F0180EF66E390EF76E9EEC16F02A0E82
:104A3000F66E390EF76E9EEC16F0120082EC16F050
:104A40003A0EF66E390EF76E9EEC16F0080E88ECF4
:104A500016F003C303F0035094EC16F0090E88EC33
:104A600016F004C303F0035094EC16F00A0E88EC21
:104A700016F005C303F0035094EC16F00B0E88EC0F
:104A800016F006C303F0035094EC16F00C0E88ECFD
:104A900016F007C303F0035094EC16F00D0E88ECEB
:104AA00016F008C303F0035094EC16F00E0E88ECD9
:104AB00016F009C303F0035094EC16F00F0E88ECC7
:104AC00016F00AC303F0035094EC16F000C203F092
:104AD000010E036207D0040E88EC16F02A0E94EC47
:104AE00016F006D0040E88EC16F03A0E94EC16F090
:104AF000700EF66E390EF76E9EEC16F0E86A7C6268
:104B000013D0840EF66E380EF76E9EEC16F0700E13
:104B1000F66E390EF76E9EEC16F0760EF66E390EC6
:104B2000F76E9EEC16F018D0800EF66E390EF76E0A
:104B30009EEC16F0440E88EC16F07C5092EC16F0C9
:104B4000430E88EC16F05B0E94EC16F0470E88ECE2
:104B500016F05D0E94EC16F000C203F0020E036234
:104B600007D0420E88EC16F02A0E94EC16F006D010
:104B7000420E88EC16F03A0E94EC16F08A0EF66EA1
:104B8000390EF76E9EEC16F000C203F0030E0362BE
:104B900007D0120E88EC16F02A0E94EC16F006D010
:104BA000120E88EC16F03A0E94EC16F0E86A7C626D
:104BB0000ED0AE0EF66E390EF76E9EEC16F01E0E8F
:104BC00088EC16F02D0E94EC16F07D9412007D8486
:104BD0009C0EF66E390EF76E9EEC16F0036A046AB0
:104BE000B8EC16F03F6E02A001D059D05E0EF66E02
:104BF000390EF76E9EEC16F0840EF66E380EF76ED8
:104C00009EEC16F0700EF66E390EF76E9EEC16F0F6
:104C100000C203F0010E03620BD0020E036E03C04C
:104C200000F2420E88EC16F02A0E94EC16F00BD02F
:104C300000C203F0020E036206D0420E88EC16F0AA
:104C40002A0E94EC16F0440E88EC16F07C5092EC90
:104C500016F0430E88EC16F05B0E94EC16F0470E3F
:104C600088EC16F05D0E94EC16F07D90C00EF66E9A
:104C7000390EF76E9EEC16F0160E88EC16F02D0E1F
:104C800094EC16F01A0E88EC16F02D0E94EC16F03B
:104C90001E0E88EC16F02D0E94EC16F012007D809E
:104CA000880E3F6202D07D8212007D9200C203F026
:104CB000010E036401D00AD002C003F003C000F269
:104CC000420E88EC16F02A0E94EC16F04C0EF66E9E
:104CD000390EF76E9EEC16F0D20EF66E390EF76EA8
:104CE0009EEC16F0160E88EC16F02D0E94EC16F0D5
:104CF0001A0E88EC16F02D0E94EC16F0120082ECD1
:104D000016F0000EF66E3A0EF76E9EEC16F0060EDA
:104D1000266417D000D0840EF66E380EF76E9EEC27
:104D200016F0120EF66E3A0EF76E9EEC16F0070EA7
:104D3000265C036E480E88EC16F003508EEC16F0DD
:104D400023D0840EF66E380EF76E9EEC16F0120E1F
:104D5000F66E3A0EF76E9EEC16F0460E88EC16F0E4
:104D60002D0E94EC16F0070E036E031E032A03505B
:104D70002624036E031E032A480E88EC16F0035007
:104D80008EEC16F0C4EF26F07F0E23640BD000D01B
:104D9000800E235C036E4D0E88EC16F0035092ECEF
:104DA00016F016D04C0E88EC16F02D0E94EC16F082
:104DB000800E036E031E032A03502324036E031E7A
:104DC000032A4D0E88EC16F0035092EC16F000D03A
:104DD000060E276417D000D0960EF66E380EF76ECA
:104DE0009EEC16F0180EF66E3A0EF76E9EEC16F06C
:104DF000070E275C036E180E88EC16F003508EEC3D
:104E000016F022D0960EF66E380EF76E9EEC16F067
:104E1000180EF66E3A0EF76E9EEC16F0160E88EC33
:104E200016F02D0E94EC16F0070E036E031E032AE7
:104E300003502724036E031E032A180E88EC16F075
:104E400003508EEC16F000D07F0E24640BD000D0FF
:104E5000800E245C036E1D0E88EC16F0035092EC5D
:104E600016F016D01C0E88EC16F02D0E94EC16F0F1
:104E7000800E036E031E032A03502424036E031EB8
:104E8000032A1D0E88EC16F0035092EC16F000D0A9
:104E9000060E286417D000D0A80EF66E380EF76EF6
:104EA0009EEC16F01E0EF66E3A0EF76E9EEC16F0A5
:104EB000070E285C036E580E88EC16F003508EEC3B
:104EC00016F022D0A80EF66E380EF76E9EEC16F095
:104ED0001E0EF66E3A0EF76E9EEC16F0560E88EC2D
:104EE00016F02D0E94EC16F0070E036E031E032A27
:104EF00003502824036E031E032A580E88EC16F074
:104F000003508EEC16F000D07F0E25640BD000D03D
:104F1000800E255C036E5D0E88EC16F0035092EC5B
:104F200016F016D05C0E88EC16F02D0E94EC16F0F0
:104F3000800E036E031E032A03502524036E031EF6
:104F4000032A5D0E88EC16F0035092EC16F000D0A8
:104F500001C203F0010E036208D000D0450E88ECB8
:104F600016F02A0E94EC16F007D0450E88EC16F0D9
:104F70003A0E94EC16F000D001C203F0020E036268
:104F800008D000D04B0E88EC16F02A0E94EC16F0E8
:104F900007D04B0E88EC16F03A0E94EC16F000D0C9
:104FA00001C203F0030E036208D000D0150E88EC96
:104FB00016F02A0E94EC16F007D0150E88EC16F0B9
:104FC0003A0E94EC16F000D001C203F0040E036216
:104FD00008D000D01B0E88EC16F02A0E94EC16F0C8
:104FE00007D01B0E88EC16F03A0E94EC16F000D0A9
:104FF00001C203F0050E036208D000D0550E88EC04
:1050000016F02A0E94EC16F007D0550E88EC16F028
:105010003A0E94EC16F000D001C203F0060E0362C3
:1050200008D000D05B0E88EC16F02A0E94EC16F037
:1050300007D05B0E88EC16F03A0E94EC16F000D018
:10504000120082EC16F0240EF66E3A0EF76E9EEC0D
:1050500016F0440EF66E3A0EF76E9EEC16F0660EE3
:10506000F66E3A0EF76E9EEC16F08A0EF66E3A0E5B
:10507000F76E9EEC16F033AA01D0F8D033AC01D015
:10508000FCD033AE01D000D15D0E88EC16F01F0EBF
:10509000366E6A50365C92EC16F04DB070D068D027
:1050A0004DB27BD073D04DB486D07ED020B08AD0A4
:1050B00090D020B295D09BD020B4A0D0A6D020B65E
:1050C000ABD0B1D020B8B6D0BCD020BAC1D0C7D0F8
:1050D00002C203F0010E036208D000D00C0E88EC6F
:1050E00016F02A0E94EC16F007D00C0E88EC16F091
:1050F0003A0E94EC16F000D002C203F0020E0362E6
:1051000008D000D04C0E88EC16F02A0E94EC16F065
:1051100007D04C0E88EC16F03A0E94EC16F000D046
:1051200002C203F0030E036208D000D01C0E88EC0C
:1051300016F02A0E94EC16F007D01C0E88EC16F030
:105140003A0E94EC16F000D002C203F0040E036293
:1051500008D000D05C0E88EC16F02A0E94EC16F005
:1051600012005C0E88EC16F03A0E94EC16F0120069
:105170002C0EF66E3A0EF76E9EEC16F091D7300EAE
:10518000F66E3A0EF76E9EEC16F08AD7340EF66E77
:105190003A0EF76E9EEC16F086D7380EF66E3A0E83
:1051A000F76E9EEC16F07FD73C0EF66E3A0EF76E59
:1051B0009EEC16F07BD7400EF66E3A0EF76E9EEC24
:1051C00016F074D74E0EF66E3A0EF76E9EEC16F091
:1051D00070D7520EF66E3A0EF76E9EEC16F069D747
:1051E000560EF66E3A0EF76E9EEC16F065D75A0E16
:1051F000F66E3A0EF76E9EEC16F05ED75E0EF66E09
:105200003A0EF76E9EEC16F05AD7620EF66E3A0E14
:10521000F76E9EEC16F053D7720EF66E3A0EF76EDE
:105220009EEC16F04FD7760EF66E3A0EF76E9EECA9
:1052300016F048D77A0EF66E3A0EF76E9EEC16F020
:1052400044D77E0EF66E3A0EF76E9EEC16F03DD702
:10525000820EF66E3A0EF76E9EEC16F039D7860E79
:10526000F66E3A0EF76E9EEC16F032D7980EF66E8A
:105270003A0EF76E9EEC16F010D79E0EF66E3A0EB2
:10528000F76E9EEC16F009D7A40EF66E3A0EF76E86
:105290009EEC16F002D782EC16F0AA0EF66E3A0ECD
:1052A000F76E9EEC16F0BC0EF66E3A0EF76E9EECA4
:1052B00016F04D0E88EC16F06C5092EC16F033B0F0
:1052C00001D007D0F80EF66E3A0EF76E9EEC16F08F
:1052D00001D000D06CB872D000D0C60EF66E3A0E77
:1052E000F76E9EEC16F01D0E88EC16F06D5092ECE9
:1052F00016F033B201D007D0020EF66E3B0EF76EF9
:105300009EEC16F001D000D06DB85FD000D0D00E6A
:10531000F66E3A0EF76E9EEC16F05D0E88EC16F007
:105320006E5092EC16F033B401D007D00C0EF66E2E
:105330003B0EF76E9EEC16F001D000D06EB84CD04C
:1053400000D003C203F0010E036208D000D0470E64
:1053500088EC16F02A0E94EC16F007D0470E88EC75
:1053600016F03A0E94EC16F000D003C203F0020ED1
:10537000036208D000D0170E88EC16F02A0E94ECC9
:1053800016F007D0170E88EC16F03A0E94EC16F0D3
:1053900000D003C203F0030E036208D000D0570E02
:1053A00088EC16F02A0E94EC16F007D0570E88EC15
:1053B00016F03A0E94EC16F000D01200DA0EF66EEB
:1053C0003A0EF76E9EEC16F088D7E40EF66E3A0EA3
:1053D000F76E9EEC16F09BD7EE0EF66E3A0EF76E59
:1053E0009EEC16F0AED782EC16F0160EF66E3B0E63
:1053F000F76E9EEC16F00D0E88EC16F0705092ECE5
:1054000016F0220EF66E3B0EF76E9EEC16F04D0E69
:1054100088EC16F06F5092EC16F02E0EF66E3B0EE6
:10542000F76E9EEC16F0A1EC2AF0E9EC2AF0360EAD
:10543000F66E3B0EF76E9EEC16F06CB858D05ED050
:105440006DB863D069D06EB86ED074D004C203F06A
:10545000010E036208D000D00B0E88EC16F02A0E65
:1054600094EC16F007D00B0E88EC16F03A0E94EC84
:1054700016F000D004C203F0020E036208D000D080
:105480004B0E88EC16F02A0E94EC16F007D04B0E5B
:1054900088EC16F03A0E94EC16F000D004C203F03B
:1054A000030E036208D000D0150E88EC16F02A0E09
:1054B00094EC16F007D0150E88EC16F03A0E94EC2A
:1054C00016F000D004C203F0040E036208D000D02E
:1054D0005A0E88EC16F02A0E94EC16F007D05A0EED
:1054E00088EC16F03A0E94EC16F000D01200420E42
:1054F000F66E3B0EF76E9EEC16F0A2D74E0EF66ED1
:105500003B0EF76E9EEC16F09BD7460EF66E3B0EEA
:10551000F76E9EEC16F097D7520EF66E3B0EF76EB6
:105520009EEC16F090D74A0EF66E3B0EF76E9EEC90
:1055300016F08CD7560EF66E3B0EF76E9EEC16F0FC
:1055400085D77A50F70FD8B0F70E090FC8EC16F0D0
:1055500008D007D00DD013D019D01FD025D02BD014
:1055600031D0030E716EF3EC3EF0D3EC3EF012003E
:10557000070E716EF3EC3EF0D7EC3EF01200080E11
:10558000716EF3EC3EF0DBEC3EF012000A0E716E31
:10559000F3EC3EF0DFEC3EF012000B0E716EF3EC1C
:1055A0003EF0E3EC3EF012000C0E716EF3EC3EF0B8
:1055B000E7EC3EF012000D0E716EF3EC3EF0EBECFA
:1055C0003EF012000E0E716EF3EC3EF0EFEC3EF08A
:1055D00012007A50F70FD8B0F70E090FC8EC16F08A
:1055E00008D007D00DD013D019D01FD025D02BD084
:1055F00031D05A0EF66E3B0EF76E9EEC16F012008E
:10560000600EF66E3B0EF76E9EEC16F012006A0E00
:10561000F66E3B0EF76E9EEC16F01200740EF66EF0
:105620003B0EF76E9EEC16F01200800EF66E3B0EEF
:10563000F76E9EEC16F01200880EF66E3B0EF76EBB
:105640009EEC16F01200920EF66E3B0EF76E9EEC7C
:1056500016F01200960EF66E3B0EF76E9EEC16F0EC
:10566000120082EC16F0A00EF66E3B0EF76E9EEC6A
:1056700016F0B20EF66E3B0EF76E9EEC16F04E0E66
:1056800088EC16F03050010F90EC16F0C40EF66E58
:105690003B0EF76E9EEC16F01E0E88EC16F03150A5
:1056A000010F90EC16F0D60EF66E3B0EF76E9EECE8
:1056B00016F05E0E88EC16F03250010F90EC16F0EA
:1056C00005C203F0010E036201D007D04C0E88EC36
:1056D00016F03A0E94EC16F007D04C0E88EC16F04B
:1056E0002A0E94EC16F000D005C203F0020E0362FD
:1056F00001D007D01C0E88EC16F03A0E94EC16F090
:1057000007D01C0E88EC16F02A0E94EC16F000D090
:1057100005C203F0030E036201D007D05C0E88ECD3
:1057200016F03A0E94EC16F007D05C0E88EC16F0EA
:105730002A0E94EC16F000D0120082EC16F0E80E5F
:10574000F66E3B0EF76E9EEC16F00E0E88EC16F021
:1057500033A001D007D02D0E94EC16F02D0E94EC52
:1057600016F007D04F0E94EC16F04E0E94EC16F097
:1057700000D0F40EF66E3B0EF76E9EEC16F04E0E59
:1057800088EC16F033A201D007D02D0E94EC16F061
:105790002D0E94EC16F007D04F0E94EC16F04E0E32
:1057A00094EC16F000D0000EF66E3C0EF76E9EECF8
:1057B00016F01E0E88EC16F033A401D007D02D0E83
:1057C00094EC16F02D0E94EC16F007D04F0E94ECDE
:1057D00016F04E0E94EC16F000D00C0EF66E3C0E49
:1057E000F76E9EEC16F033A601D00AD05E0E88EC60
:1057F00016F02D0E94EC16F02D0E94EC16F03AD017
:1058000033AA11D000D05C0E88EC16F0410E94EC57
:1058100016F05E0E88EC16F04F0E94EC16F04E0E5D
:1058200094EC16F027D033AC11D000D05C0E88EC8D
:1058300016F0420E94EC16F05E0E88EC16F04F0E49
:1058400094EC16F04E0E94EC16F014D033AE01D05A
:1058500001D010D05C0E88EC16F0430E94EC16F0DC
:105860005E0E88EC16F04F0E94EC16F04E0E94EC93
:1058700016F000D006C203F0010E036208D000D07B
:105880000A0E88EC16F02A0E94EC16F007D00A0ED9
:1058900088EC16F03A0E94EC16F000D006C203F035
:1058A000020E036208D000D04A0E88EC16F02A0ED1
:1058B00094EC16F007D04A0E88EC16F03A0E94ECF1
:1058C00016F000D006C203F0030E036208D000D029
:1058D0001A0E88EC16F02A0E94EC16F007D01A0E69
:1058E00088EC16F03A0E94EC16F000D006C203F0E5
:1058F000040E036208D000D05A0E88EC16F02A0E6F
:1059000094EC16F007D05A0E88EC16F03A0E94EC90
:1059100016F000D01200CFEF21F0000E7762AFEF4B
:105920002CF000D07550F50FD8B012000B0FCAEC58
:1059300016F0AFEF2CF0B0EF2CF031EF2DF0BAEF06
:105940002DF05FEF2FF007EF31F06AEF31F0C9EF84
:1059500031F027EF1FF03EEF20F00BEF1CF01200AC
:105960007450F70FD8B0F70E090FC8EC16F008D036
:1059700008D015D022D02FD03CD049D056D063D0FB
:10598000120000C203F0030603C000F2000E03621F
:1059900004D0030E036E03C000F21EEF25F001C217
:1059A00003F0030603C001F2000E036204D0060EEA
:1059B000036E03C001F2DDEF24F002C203F0030620
:1059C00003C002F2000E036204D0040E036E03C093
:1059D00002F2DDEF24F003C203F0030603C003F27A
:1059E000000E036204D0030E036E03C003F2DDEF6A
:1059F00024F004C203F0030603C004F2000E0362A5
:105A000004D0040E036E03C004F2DDEF24F005C2DF
:105A100003F0030603C005F2000E036204D0030E78
:105A2000036E03C005F2DDEF24F006C203F00306A7
:105A300003C006F2000E036204D0040E036E03C01E
:105A400006F2DDEF24F007C203F0030603C007F2FD
:105A5000000E036204D0040E036E03C007F2DDEFF4
:105A600024F07450F70FD8B0F70E090FC8EC16F0F9
:105A700008D009D017D025D032D040D04ED05CD03D
:105A80006AD0DDEF24F000C203F0032A03C000F265
:105A9000030E036405D0010E036E03C000F200D0B4
:105AA0001EEF25F001C203F0032A03C001F2060E27
:105AB000036405D000D0010E036E03C001F2DDEFD8
:105AC00024F002C203F0032A03C002F2040E0364AE
:105AD00004D0010E036E03C002F2DDEF24F003C216
:105AE00003F0032A03C003F2030E036405D000D0C1
:105AF000010E036E03C003F2DDEF24F004C203F0D5
:105B0000032A03C004F2040E036405D000D0010E82
:105B1000036E03C004F2DDEF24F005C203F0032A94
:105B200003C005F2030E036405D000D0010E036E1E
:105B300003C005F2DDEF24F006C203F0032A03C020
:105B400006F2040E036405D000D0010E036E03C0FC
:105B500006F2DDEF24F007C203F0032A03C007F2C8
:105B6000040E036405D000D0010E036E03C007F2DB
:105B7000DDEF24F07450F70FD8B01200090FCAEC13
:105B800016F0D3EF2DF0D5EF2DF0E1EF2DF02CEF47
:105B90002EF041EF2EF083EF2EF0B6EF2EF0E6EF71
:105BA0002EF01DEF2FF003EF25F000C203F0020EE0
:105BB000036212007F0E7C6201D012007C2A1EEF6D
:105BC00025F001C203F0010E036201D015D0020ED0
:105BD000036201D019D0030E036201D01DD0040E60
:105BE000036201D021D0050E036201D025D0060E3C
:105BF0000362DDEF24F028D00E0E266402D0DDEF24
:105C000024F0262ADDEF24F0FE0E236402D0DDEF1F
:105C100024F0232ADDEF24F00E0E276402D0DDEFFE
:105C200024F0272ADDEF24F0FE0E246402D0DDEFFD
:105C300024F0242ADDEF24F00E0E286402D0DDEFDC
:105C400024F0282ADDEF24F0FE0E256402D0DDEFDB
:105C500024F0252ADDEF24F002C203F0040E0362D3
:105C6000DDEF24F000D0E86A6A6202D0DDEF24F0B4
:105C70006A06060E396E6AC03AF0AAEC1BF0DDEF38
:105C800024F003C203F0010E036201D009D0020E1A
:105C9000036201D016D0030E0362DDEF24F022D0A0
:105CA0000F0E6C14036E0E0E036402D0DDEF24F0B1
:105CB0006C2A080E396E6CC03AF0AAEC1BF0DDEFCE
:105CC00024F00F0E6D14036E0E0E036402D0DDEF90
:105CD00024F06D2A090E396E6DC03AF0AAEC1BF063
:105CE000DDEF24F00F0E6E14036E0E0E036402D06F
:105CF000DDEF24F06E2A0A0E396E6EC03AF0AAEC7F
:105D00001BF0DDEF24F004C203F0010E036201D0AA
:105D100009D0020E036201D013D0030E0362DDEF3F
:105D200024F01CD0FE0E706402D0DDEF24F0702A47
:105D30000C0E396E70C03AF0AAEC1BF0DDEF24F0C7
:105D4000FE0E6F6402D0DDEF24F06F2A0B0E396E69
:105D50006FC03AF0AAEC1BF0DDEF24F0070E7A6476
:105D600002D0DDEF24F07A2ADDEF24F005C203F043
:105D7000010E036201D009D0020E036201D010D0DF
:105D8000030E0362DDEF24F016D00F0E3014036E05
:105D90000E0E036402D0DDEF24F0302ADDEF24F094
:105DA0000F0E3114036E0E0E036402D0DDEF24F0EB
:105DB000312ADDEF24F00F0E3214036E0E0E036451
:105DC00002D0DDEF24F0322ADDEF24F006C203F02A
:105DD0000350FB0FD8B01200050FCAEC16F0DDEF30
:105DE00024F0F9EF2EF0FCEF2EF0FFEF2EF002EF93
:105DF0002FF03380DDEF24F03382DDEF24F03384A5
:105E0000DDEF24F033A601D006D03386338A339CED
:105E1000339EDDEF24F033AA06D000D0339A338CC2
:105E2000339EDDEF24F033AC06D000D0339A339CA0
:105E3000338EDDEF24F0DDEF24F007C203F00350D2
:105E4000FB0FD8B01200050FCAEC16F0DDEF24F0FE
:105E500030EF2FF03AEF2FF048EF2FF055EF2FF003
:105E60004F2A1F0E4F6436EF2FF04F6A84EC3BF041
:105E7000DDEF24F0522AC80E5264A7D1526A020EF6
:105E8000EA6E600E4F24E96E52C0EFFFDDEF24F0A2
:105E9000502A2A0E5060506A020EEA6E200E4F24DD
:105EA000E96E50C0EFFFDDEF24F0512A020EEA6EDA
:105EB000400E4F24E96E51C0EFFFDDEF24F0745027
:105EC000F70FD8B01200090FCAEC16F078EF2FF0D8
:105ED0007AEF2FF086EF2FF0D1EF2FF0E6EF2FF0D3
:105EE00028EF30F05BEF30F08BEF30F0C2EF30F0A6
:105EF00003EF25F000C203F0020E03621200E86A0D
:105F00007C6201D012007C061EEF25F001C203F076
:105F1000010E036201D015D0020E036201D019D028
:105F2000030E036201D01DD0040E036201D021D004
:105F3000050E036201D025D0060E0362DDEF24F0CA
:105F400028D0E86A266202D0DDEF24F02606DDEFD5
:105F500024F0E86A236202D0DDEF24F02306DDEFAF
:105F600024F0E86A276202D0DDEF24F02706DDEF97
:105F700024F0E86A246202D0DDEF24F02406DDEF8D
:105F800024F0E86A286202D0DDEF24F02806DDEF75
:105F900024F0E86A256202D0DDEF24F02506DDEF6B
:105FA00024F002C203F0040E0362DDEF24F000D0FF
:105FB0001E0E6A6402D0DDEF24F06A2A060E396EE6
:105FC0006AC03AF0AAEC1BF0DDEF24F003C203F044
:105FD000010E036201D009D0020E036201D016D077
:105FE000030E0362DDEF24F022D00F0E6C14036E5B
:105FF000E86A036202D0DDEF24F06C06080E396E09
:106000006CC03AF0AAEC1BF0DDEF24F00F0E6D141B
:10601000036EE86A036202D0DDEF24F06D06090E1C
:10602000396E6DC03AF0AAEC1BF0DDEF24F00F0ED4
:106030006E14036EE86A036202D0DDEF24F06E0690
:106040000A0E396E6EC03AF0AAEC1BF0DDEF24F0B8
:1060500004C203F0010E036201D009D0020E0362F4
:1060600001D013D0030E0362DDEF24F01CD0E86AE8
:10607000706202D0DDEF24F070060C0E396E70C035
:106080003AF0AAEC1BF0DDEF24F0E86A6F6202D070
:10609000DDEF24F06F060B0E396E6FC03AF0AAECFC
:1060A0001BF0DDEF24F0020E7A6002D0DDEF24F069
:1060B0007A06DDEF24F005C203F0010E036201D081
:1060C00009D0020E036201D010D0030E0362DDEF8F
:1060D00024F016D00F0E3014036EE86A036202D06B
:1060E000DDEF24F03006DDEF24F00F0E3114036EE7
:1060F000E86A036202D0DDEF24F03106DDEF24F020
:106100000F0E3214036EE86A036202D0DDEF24F052
:106110003206DDEF24F006C203F00350FB0FD8B0C7
:106120001200050FCAEC16F0DDEF24F09EEF30F000
:10613000A1EF30F0A4EF30F0A7EF30F03390DDEFB7
:1061400024F03392DDEF24F03394DDEF24F033A616
:1061500001D002D0DDEF24F033AA07D000D033966F
:10616000339A339C339EDDEF24F033AC06D000D05D
:10617000338A339C339EDDEF24F0339A338C339E85
:10618000DDEF24F007C203F00350FB0FD8B012007C
:10619000050FCAEC16F0DDEF24F0D5EF30F0DFEF9D
:1061A00030F0EEEF30F0FDEF30F04F061F0E4F6491
:1061B00036EF2FF000D01F0E4F6E36EF2FF0520645
:1061C000C80E526402D0C80E526E020EEA6E600E05
:1061D0004F24E96E52C0EFFFDDEF24F05006290E88
:1061E000506402D0290E506E020EEA6E200E4F242B
:1061F000E96E50C0EFFFDDEF24F05106020EEA6EAB
:10620000400E4F24E96E51C0EFFFDDEF24F07450D3
:10621000F80FD8B0F80E080FC8EC16F007D006D06B
:1062200005D006D003D03DD001D000D0DDEF24F062
:1062300002C203F0010E036201D00AD0020E036213
:1062400001D015D0030E0362DDEF24F044EF31F0EE
:106250004DB032EF31F02DEF31F04D80BBEC3EF020
:10626000DDEF24F04D90BFEC3EF0DDEF24F020B0E8
:1062700006D000D0208077EC3EF0DDEF24F02090B7
:1062800073EC3EF0DDEF24F020B606D000D020867F
:106290008FEC3EF0DDEF24F020968BEC3EF0DDEF4E
:1062A00024F004C203F0040E0362DDEF24F000D0FA
:1062B0006CB805D000D06C88A3EC3EF003D06C988D
:1062C000A7EC3EF0080E396E6CC03AF0AAEC1BF059
:1062D000DDEF24F07450F90FD8B0F90E070FC8ECB9
:1062E00016F006D005D004D005D002D039D000D0A9
:1062F000DDEF24F002C203F0010E036201D009D0E9
:10630000020E036201D012D0030E0362DDEF24F00F
:106310001AD04DB206D000D04D82C3EC3EF0DDEF76
:1063200024F04D92C7EC3EF0DDEF24F020B206D011
:1063300000D020827FEC3EF0DDEF24F020927BEC59
:106340003EF0DDEF24F020B806D000D0208897EC96
:106350003EF0DDEF24F0209893EC3EF0DDEF24F0EA
:1063600004C203F0040E0362DDEF24F000D06DB828
:1063700005D000D06D88ABEC3EF003D06D98AFEC4B
:106380003EF0090E396E6DC03AF0AAEC1BF0DDEF5D
:1063900024F07450F90FD8B0F90E070FC8EC16F0BE
:1063A00006D005D004D005D002D039D000D0DDEF22
:1063B00024F002C203F0010E036201D009D0020EE4
:1063C000036201D012D0030E0362DDEF24F01AD075
:1063D0004DB406D000D04D84CBEC3EF0DDEF24F080
:1063E0004D94CFEC3EF0DDEF24F020B406D000D089
:1063F000208487EC3EF0DDEF24F0209483EC3EF027
:10640000DDEF24F020BA06D000D0208A9FEC3EF0C9
:10641000DDEF24F0209A9BEC3EF0DDEF24F004C287
:1064200003F0040E0362DDEF24F000D06EB805D057
:1064300000D06E88B3EC3EF003D06E98B7EC3EF01F
:106440000A0E396E6EC03AF0AAEC1BF0DDEF24F0B4
:10645000E86A386401D001D012003850DF0FD8B09C
:10646000DF0E210FC8EC16F020D022D021D020D092
:106470001FD01ED023D028D027D026D02BD02AD072
:1064800029D028D027D026D02BD02AD029D02ED042
:106490002DD02CD02BD009D008D007D006D005D0D5
:1064A00004D003D029D001D000D0000E386E1200E5
:1064B000050E746255EF32F082EF32F0030E746213
:1064C00055EF32F082EF32F0040E746255EF32F085
:1064D00082EF32F0030E746255EF32F082EF32F049
:1064E000050E746255EF32F082EF32F0070E7462DF
:1064F00055EF32F082EF32F0020E746255EF32F057
:1065000082EF32F0000E386EE1EF24F0000E776279
:1065100038D05F0E3B6201D002D03B2A12003B6AAA
:10652000030E756215D079B201D009D08F0E3C628E
:1065300001D002D03C2A12003C6A799212000F0E60
:106540003D6201D002D03D2A12003D6ABAEF2DF023
:10655000040E756216D079B201D009D08F0E3C625C
:1065600001D002D03C2A12003C6A799212000F0E30
:106570003D6201D002D03D2A12003C6A3D6A5FEFC5
:106580002FF03B6A3C6A3D6A7982120003C011F029
:1065900004C012F005C013F00F0E1114216E00019B
:1065A0001139070BF80FD8B01200080FCAEC16F01B
:1065B000EAEF32F01DEF33F0C9EF36F024EF33F09D
:1065C000CAEF36F0CBEF36F06CEF35F0CCEF36F0AB
:1065D00012001200215030620BD000D012501B620A
:1065E00012004E906CB804D000D02280228600D0D9
:1065F000215031620BD000D012501C6212004E921A
:106600006DB804D000D02282228800D0215032629E
:106610000BD000D012501D6212004E946EB804D000
:1066200000D02284228A00D0FF0E201422103A6E5D
:10663000070E396EAAEC1BF01200000E136202D096
:10664000EAEF32F037EF1AF012C038F013C037F02B
:106650001D0E126401D012001250E20FD8B01200C9
:106660001E0FCAEC16F070EF33F071EF33F093EFBA
:1066700033F0AAEF33F0C5EF33F0DCEF33F0F7EF90
:1066800033F01DEF34F038EF34F055EF34F072EFA3
:1066900034F083EF34F094EF34F0A7EF34F0BAEF36
:1066A00034F0CDEF34F0DEEF34F0EFEF34F0FFEF05
:1066B00034F00FEF35F01BEF35F027EF35F033EF07
:1066C00035F065EF35F066EF35F067EF35F068EFE0
:1066D00035F069EF35F06AEF35F06BEF35F0120009
:1066E00012002150306277EF33F082EF33F0215007
:1066F00031627DEF33F082EF33F0215032621200CD
:1067000082EF33F03742379E3742379E3742379E0B
:10671000080E376403D000D0080E376E37C07AF009
:10672000A1EC2AF012002150306201D008D0215093
:10673000316201D004D021503262120000D0800EAC
:106740006F1637506F260B0E396E6FC03AF0AAECF9
:106750001BF012002150306201D008D0215031626C
:1067600001D004D021503262120000D0000E3762F6
:1067700001D002D06F8E02D06F9E00D00B0E396E0A
:106780006FC03AF0AAEC1BF012002150306201D029
:1067900008D02150316201D004D021503262120061
:1067A00000D0800E7016375070260C0E396E70C0F7
:1067B0003AF0AAEC1BF012002150306201D008D050
:1067C0002150316201D004D021503262120000D039
:1067D000E86A376201D002D0708E02D0709E00D07D
:1067E0000C0E396E70C03AF0AAEC1BF0120021506A
:1067F000306201D007D0215031627FD703D02150C1
:106800003262120013C040F04042409E4042409E1F
:106810001F0E4016200E40561F0E40161F0E4060E1
:1068200001D002D01F0E406E40C06AF0060E396ED5
:1068300040C03AF0AAEC1BF012002150306217D091
:1068400000D013C041F04142419E4142419E41422D
:10685000419E0F0E4116F00E6C144110416E41C066
:106860006CF0080E396E41C03AF0AAEC1BF0120031
:106870002150316254EF34F03EEF34F013C042F057
:106880004242429E4242429E4242429E0F0E421667
:10689000F00E6D144210426E42C06DF0090E396E5A
:1068A00042C03AF0AAEC1BF012002150326271EFA4
:1068B00034F05BEF34F013C043F04342439E434255
:1068C000439E4342439E0F0E4316F00E6E14431038
:1068D000436E43C06EF00A0E396E43C03AF0AAEC24
:1068E0001BF01200215030620DD000D0E86A3762F0
:1068F00001D004D0209073EC3EF004D0208077ECDF
:106900003EF000D01200215031620DD000D0E86A74
:10691000376201D004D020927BEC3EF004D020827C
:106920007FEC3EF000D01200215032620FD000D038
:10693000E86A37629EEF34F0A2EF34F0209483ECE3
:106940003EF004D0208487EC3EF000D012002150AD
:1069500030620FD000D0E86A376201D005D02096AF
:106960008BEC3EF0B9EF34F020868FEC3EF0B9EFBF
:1069700034F01200215031620FD000D0E86A376243
:10698000C4EF34F0C8EF34F0209893EC3EF004D01C
:10699000208897EC3EF000D01200215032620DD0DA
:1069A00000D0E86A376201D004D0209A9BEC3EF018
:1069B00004D0208A9FEC3EF000D0120021503062BB
:1069C0000DD000D0E86A376201D005D06C88A3EC06
:1069D0003EF0EEEF34F06C98A7EC3EF01200215040
:1069E00031620CD000D0E86A376201D004D06D88E3
:1069F000ABEC3EF003D06D98AFEC3EF012002150AE
:106A000032620CD000D0E86A376201D004D06E88C0
:106A1000B3EC3EF003D06E98B7EC3EF0120021507C
:106A2000306208D000D0E86A376201D002D03380EB
:106A300001D0339012002150316208D000D0E86AB2
:106A4000376201D002D0338201D03392120021503C
:106A5000326208D000D0E86A376201D002D03384B5
:106A600001D0339412002150306201D008D021505F
:106A7000316201D004D02150326226D000D0E86AC1
:106A8000376201D01DD0010E376206D000D03386A8
:106A9000338A339C339E18D0020E376207D000D061
:106AA0003386339A338C339E64EF35F0030E3762AE
:106AB0000BD000D03386339A339C338E64EF35F09D
:106AC0003396339A339C339E120012001200120048
:106AD000120012001200120013C044F013C045F05F
:106AE00013C046F02CC047F029C04AF02DC048F032
:106AF0002AC04BF02EC049F02BC04CF01E0E386E51
:106B0000215030626DD000D03F0E44642FD000D0B1
:106B1000444644C023F0800E445E44504426442A38
:106B2000030E2C6401D013D02C50FC0FD8B0FC0EF7
:106B3000040FC8EC16F003D004D005D006D04442B0
:106B4000449E4442449E4442449E4442449E445097
:106B50004A5E2950446438D000D0E86A476201D0C8
:106B600002D0470631D00A0E4A6E2ED0444644C0A9
:106B700023F0800E4456445044264406030E2C64F1
:106B800001D013D02C50FC0FD8B0FC0E040FC8EC71
:106B900016F003D004D005D006D04442449E4442AF
:106BA000449E4442449E4442449E44504A2601E24C
:106BB0000BD00E0E476401D002D0472A05D00F0E2D
:106BC000476ED20E4A6E00D0010E396E47503A6EB3
:106BD000AAEC1BF0000E396E4A503A6EAAEC1BF07C
:106BE0002150316269D000D03F0E45642FD000D0D3
:106BF000454645C024F0800E455E45504526452A51
:106C0000030E2D6401D013D02D50FC0FD8B0FC0E14
:106C1000040FC8EC16F003D004D005D006D04542CE
:106C2000459E4542459E4542459E4542459E4550AE
:106C30004B5E2A50456434D000D0E86A486201D0E7
:106C400002D048062DD00A0E4B6E2AD0454645C0CC
:106C500024F0800E4556455045264506030E2D640A
:106C600001D013D02D50FC0FD8B0FC0E040FC8EC8F
:106C700016F003D004D005D006D04542459E4542CB
:106C8000459E4542459E4542459ED89045504B26DF
:106C900001E206D00F0E486201D002D0482A00D08F
:106CA000030E396E48503A6EAAEC1BF0020E396E94
:106CB0004B503A6EAAEC1BF02150326269D000D0E2
:106CC0003F0E46642FD000D0464646C025F0800EC9
:106CD000465E46504626462A030E2E6401D013D047
:106CE0002E50FC0FD8B0FC0E040FC8EC16F003D0E9
:106CF00004D005D006D04642469E4642469E4642B5
:106D0000469E4642469E46504C5E2B50466434D0CA
:106D100000D0E86A496201D002D049062DD00A0E9F
:106D20004C6E2AD0464646C025F0800E4656465048
:106D300046264606030E2E6401D013D02E50FC0FBB
:106D4000D8B0FC0E040FC8EC16F003D004D005D068
:106D500006D04642469E4642469E4642469E464291
:106D6000469ED89046504C2601E206D00F0E49624E
:106D700001D002D0492A00D0050E396E49503A6E32
:106D8000AAEC1BF0040E396E4C503A6EAAEC1BF0C4
:106D90001200120012001200120021503062BAEFED
:106DA00037F003C02CF004C029F02290229612C0C4
:106DB0001BF04DA004D048EC3EF0542A4E806CB835
:106DC00001D006D00D0E396E71C03AF0AAEC1BF05E
:106DD000070E266202D00DEF37F0060E266401D0B2
:106DE0000ED0070E010F26542C260F0E2C640DEF2B
:106DF00037F000D00F0E2C6ED20E296E0ED0070E7B
:106E0000265C2F6E2C6401D005D0000E2C6E0A0E6D
:106E1000296E03D02F502C5E00D0800E236201D04B
:106E20005FD07F0E236401D02DD0800E010F23543C
:106E30002F6E2F262F06030E2C6401D013D02C505A
:106E4000FC0FD8B0FC0E040FC8EC16F003D004D031
:106E500005D006D02F422F9E2F422F9E2F422F9ECD
:106E60002F422F9ED8902F50292601E239D00E0EA6
:106E70002C6401D002D02C2A33D00F0E2C6ED20EEF
:106E8000296E2ED0800E235C2F6E2F262F06030E28
:106E90002C6401D013D02C50FC0FD8B0FC0E040F82
:106EA000C8EC16F003D004D005D006D02F422F9E98
:106EB0002F422F9E2F422F9E2F422F9E29502F640C
:106EC00001D003D02F50295E0BD02F50295E000E29
:106ED0002C6201D002D02C0603D00A0E296E00D0FD
:106EE000010E396E2C503A6EAAEC1BF0000E396E72
:106EF00029503A6EAAEC1BF033A61BD000D033AA5F
:106F000018D000D013C035F03542359E3542359E3D
:106F10001F0E3516200E35561F0E356403D000D0D7
:106F20001F0E356E060E396E35C03AF0AAEC1BF016
:106F300000D033B009D000D0080E396E6CC03AF0E2
:106F4000AAEC1BF0BAEF37F013C034F03442349E91
:106F50003442349E3442349E0F0E3416F00E6C14BC
:106F60003410346E080E396E34C03AF0AAEC1BF0BF
:106F7000BAEF37F021503162A7EF38F003C02DF09F
:106F800004C02AF02292229812C01CF04DA204D014
:106F900048EC3EF04E82542A6DB801D006D00D0E5A
:106FA000396E71C03AF0AAEC1BF0070E276201D0CF
:106FB00021D0060E276401D00FD0070E010F2754F1
:106FC0002D260F0E2D64FAEF37F000D00F0E2D6E28
:106FD000D20E2A6EFAEF37F0070E275C2F6E2D6463
:106FE00001D005D0000E2D6E0A0E2A6E03D02F5050
:106FF0002D5E00D0800E246201D05FD07F0E24640D
:1070000001D02DD0800E010F24542F6E2F262F0675
:10701000030E2D6401D013D02D50FC0FD8B0FC0E00
:10702000040FC8EC16F003D004D005D006D02F42D0
:107030002F9E2F422F9E2F422F9E2F422F9ED89061
:107040002F502A2601E239D00E0E2D6401D002D035
:107050002D2A33D00F0E2D6ED20E2A6E2ED0800E1A
:10706000245C2F6E2F262F06030E2D6401D013D023
:107070002D50FC0FD8B0FC0E040FC8EC16F003D056
:1070800004D005D006D02F422F9E2F422F9E2F4294
:107090002F9E2F422F9E2A502F6401D003D02F50B5
:1070A0002A5E0BD02F502A5E000E2D6201D002D036
:1070B0002D0603D00A0E2A6E00D0030E396E2D5015
:1070C0003A6EAAEC1BF0020E396E2A503A6EAAEC08
:1070D0001BF033A61BD000D033AC18D000D013C0A7
:1070E00035F03542359E3542359E1F0E3516200E41
:1070F00035561F0E356403D000D01F0E356E060EB8
:10710000396E35C03AF0AAEC1BF000D033B209D08A
:1071100000D0090E396E6DC03AF0AAEC1BF0A7EF53
:1071200038F013C034F03442349E3442349E34423A
:10713000349E0F0E3416F00E6D143410346E090E9A
:10714000396E34C03AF0AAEC1BF0A7EF38F02150AA
:10715000326292EF39F003C02EF004C02BF022947B
:10716000229A12C01DF04DA404D048EC3EF04E848B
:10717000542A6EB801D006D00D0E396E71C03AF0A7
:10718000AAEC1BF0070E286201D01FD0060E28645F
:1071900001D00DD0070E010F28542E260F0E2E649D
:1071A00014D000D00F0E2E6ED20E2B6E0ED0070E06
:1071B000285C2F6E2E6401D005D0000E2E6E0A0EB4
:1071C0002B6E03D02F502E5E00D0800E256201D092
:1071D0005FD07F0E256401D02DD0800E010F255485
:1071E0002F6E2F262F06030E2E6401D013D02E50A3
:1071F000FC0FD8B0FC0E040FC8EC16F003D004D07E
:1072000005D006D02F422F9E2F422F9E2F422F9E19
:107210002F422F9ED8902F502B2601E239D00E0EF0
:107220002E6401D002D02E2A33D00F0E2E6ED20E35
:107230002B6E2ED0800E255C2F6E2F262F06030E70
:107240002E6401D013D02E50FC0FD8B0FC0E040FCA
:10725000C8EC16F003D004D005D006D02F422F9EE4
:107260002F422F9E2F422F9E2F422F9E2B502F6456
:1072700001D003D02F502B5E0BD02F502B5E000E71
:107280002E6201D002D02E0603D00A0E2B6E00D043
:10729000050E396E2E503A6EAAEC1BF0040E396EB4
:1072A0002B503A6EAAEC1BF033A61BD000D033AEA5
:1072B00018D000D013C035F03542359E3542359E8A
:1072C0001F0E3516200E35561F0E356403D000D024
:1072D0001F0E356E060E396E35C03AF0AAEC1BF063
:1072E00000D033B409D000D00A0E396E6EC03AF027
:1072F000AAEC1BF092EF39F013C034F03442349E04
:107300003442349E3442349E0F0E3416F00E6E1406
:107310003410346E0A0E396E34C03AF0AAEC1BF009
:1073200092EF39F0205022106B6E070E396E6BC051
:107330003AF0AAEC1BF0120084EC3BF082EC16F061
:10734000180EF66E3C0EF76E9EEC16F00E0E88ECE4
:1073500016F04F5090EC16F0200EF66E3C0EF76EC5
:107360009EEC16F04D0E88EC16F0525092EC16F092
:107370002A0EF66E3C0EF76E9EEC16F02DEC3AF0EF
:107380002E0EF66E3C0EF76E9EEC16F05D0E88EC3F
:1073900016F0515092EC16F007C203F0010E036292
:1073A0000DD00B0E88EC16F02A0E94EC16F00C0E95
:1073B00088EC16F03E0E94EC16F006D00B0E88EC1E
:1073C00016F03D0E94EC16F007C203F0020E0362B5
:1073D0000DD04B0E88EC16F02A0E94EC16F04C0EE5
:1073E00088EC16F03E0E94EC16F006D04B0E88ECAE
:1073F00016F03D0E94EC16F007C203F0030E036284
:107400000DD0130E88EC16F02A0E94EC16F0140E24
:1074100088EC16F03E0E94EC16F006D0130E88ECB5
:1074200016F03D0E94EC16F007C203F0040E036252
:107430000DD05B0E88EC16F02A0E94EC16F05C0E64
:1074400088EC16F03E0E94EC16F012005B0E88EC01
:1074500016F03D0E94EC16F012005050D60FD8B036
:10746000D60E2A0FC8EC16F029D02FD035D03BD03D
:1074700041D047D04DD053D059D05FD065D06BD0DC
:1074800071D077D07DD083D089D08FD095D09BD04C
:10749000A1D0A7D0ADD0B3D0B9D0BFD0C5D0CBD0BC
:1074A000D1D0D7D0DDD0E3D0E9D0EFD0F5D0FBD02C
:1074B00001D107D10DD113D119D11FD1380EF66EDC
:1074C0003C0EF76E9EEC16F01200420EF66E3C0E6D
:1074D000F76E9EEC16F012004A0EF66E3C0EF76E3A
:1074E0009EEC16F01200520EF66E3C0EF76E9EECFD
:1074F00016F012005A0EF66E3C0EF76E9EEC16F069
:107500001200620EF66E3C0EF76E9EEC16F0120044
:107510006A0EF66E3C0EF76E9EEC16F01200720EBE
:10752000F66E3C0EF76E9EEC16F01200800EF66EB4
:107530003C0EF76E9EEC16F012008E0EF66E3C0EB0
:10754000F76E9EEC16F012009C0EF66E3C0EF76E77
:107550009EEC16F01200AA0EF66E3C0EF76E9EEC34
:1075600016F01200B80EF66E3C0EF76E9EEC16F09A
:107570001200C60EF66E3C0EF76E9EEC16F0120070
:10758000D40EF66E3C0EF76E9EEC16F01200E20E74
:10759000F66E3C0EF76E9EEC16F01200F00EF66ED4
:1075A0003C0EF76E9EEC16F01200FE0EF66E3C0ED0
:1075B000F76E9EEC16F012000C0EF66E3D0EF76E96
:1075C0009EEC16F012001A0EF66E3D0EF76E9EEC53
:1075D00016F01200280EF66E3D0EF76E9EEC16F0B9
:1075E0001200360EF66E3D0EF76E9EEC16F012008F
:1075F000440EF66E3D0EF76E9EEC16F01200520E23
:10760000F66E3D0EF76E9EEC16F012005E0EF66EF4
:107610003D0EF76E9EEC16F012006A0EF66E3D0EF1
:10762000F76E9EEC16F01200760EF66E3D0EF76EBB
:107630009EEC16F01200820EF66E3D0EF76E9EEC7A
:1076400016F012008E0EF66E3D0EF76E9EEC16F0E2
:1076500012009A0EF66E3D0EF76E9EEC16F01200BA
:10766000A80EF66E3D0EF76E9EEC16F01200B40EEC
:10767000F66E3D0EF76E9EEC16F01200C20EF66E20
:107680003D0EF76E9EEC16F01200D00EF66E3D0E1B
:10769000F76E9EEC16F01200DE0EF66E3D0EF76EE3
:1076A0009EEC16F01200EC0EF66E3D0EF76E9EECA0
:1076B00016F01200FA0EF66E3D0EF76E9EEC16F006
:1076C0001200080EF66E3E0EF76E9EEC16F01200DB
:1076D000160EF66E3E0EF76E9EEC16F01200240E9D
:1076E000F66E3E0EF76E9EEC16F01200320EF66E3F
:1076F0003E0EF76E9EEC16F01200400EF66E3E0E39
:10770000F76E9EEC16F01200020EEA6E200E4F2469
:10771000E96EEFCF50F0400E4F24E96EEFCF51F0FD
:10772000600E4F24E96EEFCF52F01200F2A403D0A6
:10773000F294532A120012004E504D14576EE86A0C
:10774000576491D25450556201D006D054C055F0C0
:10775000616A536A566A03D0000E566284D236ECD0
:107760003EF0635053647FD26250D60FD8B0D60E2D
:107770002A0FC8EC16F029D029D035D041D04DD0F1
:1077800059D065D071D087D09DD0B3D0C9D0DFD0CB
:10779000F5D000D10BD116D122D12ED13AD146D17C
:1077A00052D15ED16DD17ED187D198D1A1D1B2D144
:1077B000BBD1C6D1CCD1D2D1DED1EAD1F6D102D261
:1077C0000ED21AD226D232D23ED21200205022102D
:1077D0006B6E6BC058F05890070E396E58C03AF077
:1077E000AAEC1BF039D2205022106B6E6BC058F0FF
:1077F0005880070E396E58C03AF0AAEC1BF02CD214
:10780000205022106B6E6BC058F05892070E396EE4
:1078100058C03AF0AAEC1BF01FD2205022106B6E19
:107820006BC058F05882070E396E58C03AF0AAEC77
:107830001BF012D2205022106B6E6BC058F058947F
:10784000070E396E58C03AF0AAEC1BF005D2205052
:1078500022106B6E6BC058F05884070E396E58C0FA
:107860003AF0AAEC1BF0F8D12CC01EF029C01FF092
:1078700055EC3EF01EC02CF01FC029F0010E396EF1
:107880002C503A6EAAEC1BF0000E396E29503A6E5D
:10789000AAEC1BF0E1D12CC01EF029C01FF063EC54
:1078A0003EF01EC02CF01FC029F0010E396E2C5086
:1078B0003A6EAAEC1BF0000E396E29503A6EAAEC13
:1078C0001BF0CAD12DC01EF02AC01FF055EC3EF0AF
:1078D0001EC02CF01FC02AF0030E396E2D503A6ED8
:1078E000AAEC1BF0020E396E2A503A6EAAEC1BF07D
:1078F000B3D12DC01EF02AC01FF063EC3EF01EC0B5
:107900002DF01FC02AF0030E396E2D503A6EAAECEE
:107910001BF0020E396E2A503A6EAAEC1BF09CD175
:107920002EC01EF02BC01FF055EC3EF01EC02CF0F8
:107930001FC02BF0050E396E2E503A6EAAEC1BF0CC
:10794000040E396E2B503A6EAAEC1BF085D12EC076
:107950001EF02BC01FF063EC3EF01EC02EF01FC0C7
:107960002BF0050E396E2E503A6EAAEC1BF0040E69
:10797000396E2B503A6EAAEC1BF06ED10F0E7B6461
:1079800002D00F0E7B6E080E396E7BC03AF0AAEC67
:107990001BF062D10F0E7B6402D00F0E7B6E090EBE
:1079A000396E7BC03AF0AAEC1BF056D10F0E7B6407
:1079B00002D00F0E7B6E0A0E396E7BC03AF0AAEC35
:1079C0001BF04AD1205022106B6E6BC058F05896B5
:1079D000070E396E58C03AF0AAEC1BF03DD120508A
:1079E00022106B6E6BC058F05886070E396E58C067
:1079F0003AF0AAEC1BF030D1205022106B6E6BC015
:107A000058F05898070E396E58C03AF0AAEC1BF09F
:107A100023D1205022106B6E6BC058F05888070E8F
:107A2000396E58C03AF0AAEC1BF016D12050221043
:107A30006B6E6BC058F0589A070E396E58C03AF00A
:107A4000AAEC1BF009D1205022106B6E6BC058F0CD
:107A5000588A070E396E58C03AF0AAEC1BF0FCD0D9
:107A60001F0E7B6402D01F0E7B6E1F0E366E7B5086
:107A7000365E060E396E36C03AF0AAEC1BF0ECD03A
:107A8000A1EC2AF06CC058F05888080E396E58C026
:107A90003AF0AAEC1BF00D0E396E71C03AF0AAEC68
:107AA0001BF0DAD06CC058F05898080E396E58C0E8
:107AB0003AF0AAEC1BF0D0D0A1EC2AF06DC058F03F
:107AC0005888090E396E58C03AF0AAEC1BF00D0E1A
:107AD000396E71C03AF0AAEC1BF0BED06DC058F000
:107AE0005898090E396E58C03AF0AAEC1BF0B4D081
:107AF000A1EC2AF06EC058F058880A0E396E58C0B2
:107B00003AF0AAEC1BF00D0E396E71C03AF0AAECF7
:107B10001BF0A2D06EC058F058980A0E396E58C0AB
:107B20003AF0AAEC1BF098D0080E7B6438D7080E08
:107B30007B6E0D0E396E7BC03AF0AAEC1BF08CD038
:107B40000B0E396E7BC03AF0AAEC1BF085D00C0E00
:107B5000396E7BC03AF0AAEC1BF07ED0000E396E75
:107B600059C03AF0AAEC1BF0010E396E5AC03AF037
:107B7000AAEC1BF071D0020E396E59C03AF0AAEC93
:107B80001BF0030E396E5AC03AF0AAEC1BF064D019
:107B9000040E396E59C03AF0AAEC1BF0050E396E8E
:107BA0005AC03AF0AAEC1BF057D0000E396E5BC0F9
:107BB0003AF0AAEC1BF0010E396E5CC03AF0AAEC68
:107BC0001BF04AD0020E396E5BC03AF0AAEC1BF0F3
:107BD000030E396E5CC03AF0AAEC1BF03DD0040EE7
:107BE000396E5BC03AF0AAEC1BF0050E396E5CC032
:107BF0003AF0AAEC1BF030D0000E396E5DC03AF0BE
:107C0000AAEC1BF0010E396E5EC03AF0AAEC1BF034
:107C100023D0020E396E5DC03AF0AAEC1BF0030EC1
:107C2000396E5EC03AF0AAEC1BF016D0040E396E25
:107C30005DC03AF0AAEC1BF0050E396E5EC03AF05A
:107C4000AAEC1BF009D07BC061F01F0E616402D06A
:107C50001F0E616E536A07D0536A612A1F0E61645A
:107C600033EF3EF0566836EC3EF01200020EEA6E3C
:107C7000200E6124E96EEFCF62F0400E6124E96EC0
:107C8000EFCF7BF0600E6124E96EEFCF63F012005E
:107C90005CC05EF05BC05DF05AC05CF059C05BF048
:107CA00003C05AF004C059F012007B50D8801F5A0C
:107CB00001E31200000E1E6201D002D01E06120067
:107CC0000A0E1F6E12007B50D8901F2201E2120094
:107CD0000E0E1E6401D002D01E2A12000F0E1E6E60
:107CE000D20E1F6E1200080E64EC16F01200080E81
:107CF00062EC16F01200090E64EC16F01200090E88
:107D000062EC16F012000A0E64EC16F012000A0E75
:107D100062EC16F012000B0E64EC16F012000B0E63
:107D200062EC16F012000C0E64EC16F012000C0E51
:107D300062EC16F012000D0E64EC16F012000D0E3F
:107D400062EC16F012000E0E64EC16F012000E0E2D
:107D500062EC16F012000F0E64EC16F012000F0E1B
:107D600062EC16F01200100E64EC16F01200100E09
:107D700062EC16F01200110E64EC16F01200110EF7
:107D800062EC16F01200120E64EC16F01200120EE5
:107D900062EC16F01200130E64EC16F01200130ED3
:107DA00062EC16F01200140E64EC16F01200150EC0
:107DB00064EC16F01200160E64EC16F01200170EAA
:107DC00064EC16F01200180E64EC16F01200190E96
:107DD00064EC16F012001A0E64EC16F012001B0E82
:107DE00064EC16F01200140E62EC16F0150E62EC44
:107DF00016F0160E62EC16F0170E62EC16F0180E66
:107E000062EC16F0190E62EC16F01A0E62EC16F027
:107E10001B0E62EC16F0120087EC19F0100E78ECD5
:107E200016F0010E80EC16F0000E7CEC16F0C7EC9C
:107E30001AF098EC1BF09CEC1BF0A2EC1BF0BFECD2
:107E400019F09CEC3BF086EC32F0120096EC3BF023
:107E50001200120014EC1AF0DDEF24F028EC32F0DE
:107E60001200C6EF32F012001200120012001200CF
:107E700012001200D3EF24F012009FEC19F0120050
:087E8000A9EC19F01200120038
:00000001FF
