:020000040000FA
:10300000C8EF1EF0CEEF1EF0D4EF1EF0E3EF1EF07F
:10301000E4EF1EF0EAEF1EF026EF1FF035EF1FF091
:1030200016EF1FF01EEF1FF044EF1FF00EEF1FF022
:1030300008EF1FF0F0EF1EF0FBEF1EF0E0EF22F0C4
:10304000E1EF22F0E2EF22F0E3EF22F015EF1FF0C4
:1030500014EF1FF0E4EF22F0E5EF22F0E6EF22F0AC
:103060001200000012000000120000001200000018
:103070001200000012000000120000001200000008
:10308000FFFFFFFFFFFFFFFFFFFFFFFFFFFFFFFF50
:10309000FFFFFFFFFFFFFFFFFFFFFFFFFFFFFFFF40
:10330000D9CFEDFFE9CFD9FF10C0EDFF11C0EDFF20
:1033100012C0EDFF13C0EDFF14C0EDFF15C0EDFFAF
:1033200016C0EDFF17C0EDFF18C0EDFF19C0EDFF8F
:103330001AC0EDFF106E020EDBCF11F00001E45158
:10334000010A03E1D1EC22F008D00001E451020AA5
:1033500004E1115002E1B0EF1BF0080E105CD8A0A0
:10336000AFD11150D8A4ACD1F80E1024126E040EB7
:103370000001E05DD8B0F2D11BC0EDFF1CC0EDFF35
:103380001C6AE0351C36E8341C36FC0B1B6E000E44
:10339000FB6E330EFA6EAE0E1B261C50FA22D8B00E
:1033A000FB2A1B50ECCF1CF0ECCF1BF0F96EDFEFCB
:1033B00019F00BEF1AF00FEF1AF0B8EF1AF0FC0E3D
:1033C000F66E430EF76E000EF86E0900F5CF13F09F
:1033D0000900F5CF14F0E3C015F0166A1550131666
:1033E000165014161350141012E00001E15191EC24
:1033F00020F0080E0001E125136E320EED6E000E76
:10340000ED6E135035EC21F0020EE926A7D11250D3
:10341000BCEC21F0A3D11250EAEC21F09FD1000EB8
:10342000F66E440EF76E000EF86E0900F5CF13F03D
:103430000900F5CF14F0E3C015F0166A1550131605
:103440001650141613501410D8B44CD00001E25189
:10345000040DF3CF13F0800E1326000E146A14220D
:1034600013C015F014C016F013C0E1FF14C0E2FF42
:10347000E6CF13F0E7CF14F0D8901234176EFC0E9D
:103480001726430E186A1822000E196A192217C04F
:10349000F6FF18C0F7FF19C0F8FF0900F5CF17F0C5
:1034A0000900F5CF18F017501314196E18501414A2
:1034B0001A6E19501A1007E017501318196E185089
:1034C00014181A6E06D017501310196E18501410D5
:1034D0001A6E15C0E1FF16C0E2FF19C0E6FF1AC060
:1034E000E7FF43D00001E251040DF3CF13F0800E4B
:1034F0001326000E146A142213C015F014C016F01F
:1035000013C0E1FF14C0E2FFE6CF13F0E7CF14F0E1
:10351000D8901234176EFC0E1726430E186A182224
:10352000000E196A192217C0F6FF18C0F7FF19C05C
:10353000F8FF0900F5CF17F00900F5CF18F0135088
:10354000171803E11450181801E003D0136A146A25
:1035500004D017C013F018C014F015C0E1FF16C056
:10356000E2FF13C0E6FF14C0E7FFC9EC1BF0F6D082
:10357000020EF66E440EF76E000EF86E0900F5CFDF
:1035800013F00900F5CF14F0E3C015F0166A1550DA
:1035900013161650141613501410D8B44CD0000142
:1035A000E251040DF3CF13F0800E1326000E146ABF
:1035B0001422020E1326D8B0142A13C0E1FF14C03F
:1035C000E2FFE6CF15F0E7CF16F0D8901234176E71
:1035D000FC0E1726430E186A1822000E196A1922CB
:1035E00017C0F6FF18C0F7FF19C0F8FF0900F5CFA4
:1035F00017F00900F5CF18F017501514196E185070
:1036000016141A6E19501A1007E017501518196E73
:10361000185016181A6E06D017501510196E18503B
:1036200016101A6E13C0E1FF14C0E2FF19C0E6FFC6
:103630001AC0E7FF42D00001E251040DF3CF13F0AE
:10364000800E1326000E146A1422020E1326D8B020
:10365000142A13C0E1FF14C0E2FFE6CF15F0E7CF54
:1036600016F0D8901236FC0E1226430E176A172257
:10367000000E186A182212C0F6FF17C0F7FF18C014
:10368000F8FF0900F5CF12F00900F5CF17F015503B
:10369000121803E11650171801E003D0156A166AD4
:1036A00004D012C015F017C016F013C0E1FF14C00B
:1036B000E2FF15C0E6FF16C0E7FFC9EC1BF04ED0D5
:1036C000040E105CD8B04AD011501CE0D8901034D1
:1036D000116EFC0E1126430E126A1222000E136A9E
:1036E000132211C0F6FF12C0F7FF13C0F8FF090044
:1036F000F5CF11F00900F5CF12F0111E11500001A5
:10370000E3172CD00001E35109E110500EEC22F038
:10371000020E105C03E2010ED5EC21F0D8901036B9
:10372000FC0E1026430E116A1122000E126A12229C
:1037300010C0F6FF11C0F7FF12C0F8FF0900F5CF67
:1037400010F00900F5CF11F0E3C012F0136A125027
:1037500010121350111210500001E36F0BEC1DF00A
:10376000ECCF1AF0ECCF19F0ECCF18F0ECCF17F04B
:10377000ECCF16F0ECCF15F0ECCF14F0ECCF13F04B
:10378000ECCF12F0ECCF11F0ECCF10F0ECCFD9FF72
:10379000120010C0EDFF11C0EDFF12C0EDFF13C00D
:1037A000EDFF14C0EDFF15C0EDFF16C0EDFF17C013
:1037B000EDFF18C0EDFF19C0EDFF1AC0EDFF1BC0F3
:1037C000EDFF1CC0EDFF1DC0EDFF1EC0EDFF1FC0D3
:1037D000EDFF20C0EDFF21C0EDFF106A116A100E51
:1037E000105C12E2C00E1124126E136A000E132236
:1037F00012C0E1FF13C0E2FF000EE66E000EE76E9E
:10380000112A112A102AEBD7106A100E105CD8B0BA
:103810006ED0116A126A100E115CD8B066D0800E9C
:103820001224136E146A000E1422156A166A100E02
:10383000155CD8B054D013C0E1FF14C0E2FFE6CF4E
:1038400017F0E7CF18F0FC0E1624196E1A6A430E13
:103850001A221B6A000E1B2219C0F6FF1AC0F7FFBE
:103860001BC0F8FF0900F5CF19F00900F5CF1AF0D9
:10387000195017161A501816175018102CE0C00EB1
:103880001624176E186A000E182217C0E1FF18C020
:10389000E2FFE6CF19F0E7CF1AF0800E12241B6E7C
:1038A0001C6A000E1C22020E1B26D8B01C2A1BC04C
:1038B000E1FF1CC0E2FFE6CF1BF0E7CF1CF01B507E
:1038C00019121C501A1217C0E1FF18C0E2FF19C0EC
:1038D000E6FF1AC0E7FF162A162A152AA8D715C030
:1038E00010F0040E1226112A96D7102A8ED7106ACD
:1038F000116A126A136A146A156A100E105CD8B045
:1039000065D0000E1124166E010E1220176EC00E27
:103910001324186E196A000E19221A6A1B6A1C6A8F
:10392000100E1B5C36E218C0E1FF19C0E2FFE6CFC3
:103930001DF0E7CF1EF0FC0E1C241F6E206A430E04
:103940002022216A000E21221FC0F6FF20C0F7FFAF
:1039500021C0F8FF0900F5CF1FF00900F5CF20F0D6
:103960001F501D1620501E161D501E100EE01AC0AE
:103970001DF01A2A16501D2617501E6A1E221DC041
:10398000E1FF1EC0E2FF1BC0E7FF1C2A1C2A1B2A06
:10399000C7D7000E1424166E010E1520176E165090
:1039A0001A261750186A18221AC0E1FF18C0E2FF41
:1039B000FF0EE76E100E1126D8B0122A132A132A12
:1039C000100E1426D8B0152A102A97D7ECCF21F064
:1039D000ECCF20F0ECCF1FF0ECCF1EF0ECCF1DF0C1
:1039E000ECCF1CF0ECCF1BF0ECCF1AF0ECCF19F0C1
:1039F000ECCF18F0ECCF17F0ECCF16F0ECCF15F0C1
:103A0000ECCF14F0ECCF13F0ECCF12F0ECCF11F0C0
:103A1000ECCF10F0120010C0EDFF11C0EDFF00015F
:103A2000E451020A01E1EED00001E051C6EC16F0CB
:103A3000106E1050ED6E000E09EC23F0E92A000E16
:103A4000ED6E010E09EC23F0E92A000EED6E020E78
:103A500009EC23F0E92A040E0001E05DD8B0D2D0D1
:103A600012C0EDFF13C0EDFF136AE0351336E834E2
:103A70001336FC0B126E000EFB6E3A0EFA6E960EAB
:103A800012261350FA22D8B0FB2A1250ECCF13F0B2
:103A9000ECCF12F0F96E53EF1DF071EF1DF08FEFC8
:103AA0001DF0C5EF1DF0080E0001E15D0BE2E151D4
:103AB000C6EC16F0106E1050ED6E010E09EC23F0FE
:103AC000E92AA0D0F80E0001E125106E1050C6ECD6
:103AD00016F0106E1050ED6E020E09EC23F0E92A7C
:103AE00091D0080E0001E25D0BE2E251C6EC16F047
:103AF000106E1050ED6E010E09EC23F0E92A82D011
:103B0000F80E0001E225106E1050C6EC16F0106E93
:103B10001050ED6E020E09EC23F0E92A73D000017B
:103B2000E251040DF3CF10F0800E1026000E116A42
:103B3000112210C0E1FF11C0E2FFE6CF10F0E7CF85
:103B400011F0116A1050ED6E010E09EC23F0E92A14
:103B50000001E251040DF3CF10F0800E1026000E8C
:103B6000116A112210C0E1FF11C0E2FFE6CF10F090
:103B7000E7CF11F01150106E116A116A1050ED6EFE
:103B8000020E09EC23F0E92A3DD00001E251040DB8
:103B9000F3CF10F0800E1026000E116A1122020ED3
:103BA0001026D8B0112A10C0E1FF11C0E2FFE6CF05
:103BB00010F0E7CF11F0116A1050ED6E010E09EC14
:103BC00023F0E92A0001E251040DF3CF10F0800E3A
:103BD0001026000E116A1122020E1026D8B0112AEA
:103BE00010C0E1FF11C0E2FFE6CF10F0E7CF11F007
:103BF0001150106E116A116A1050ED6E020E09EC30
:103C000023F0E92AECCF11F0ECCF10F01200D9CF5D
:103C1000EDFFE9CFD9FF10C0EDFF11C0EDFF12C0DD
:103C2000EDFF13C0EDFF14C0EDFF15C0EDFF16C092
:103C3000EDFF17C0EDFF18C0EDFF19C0EDFF1AC072
:103C4000EDFF1BC0EDFF1CC0EDFF1DC0EDFF1EC052
:103C5000EDFF1FC0EDFF20C0EDFF106E116A126A6C
:103C6000136A146A156A166A176A100E115CD8B0C6
:103C70006AD0800E1224186E196A000E1922800E66
:103C800012241A6E1B6A000E1B22020E1A26D8B0CE
:103C90001B2A105003E01C6A1D6A15D0FC0E132469
:103CA0001E6E1F6A430E1F22206A000E20221EC0B5
:103CB000F6FF1FC0F7FF20C0F8FF0900F5CF1CF08A
:103CC0000900F5CF1DF01AC0E1FF1BC0E2FF1CC0C8
:103CD000E6FF1DC0E7FF18C0E1FF19C0E2FF1CC0EE
:103CE000E6FF1DC0E7FF000E1424186E010E15201C
:103CF000196E105003E0FF0E1A6E02D011C01AF0B8
:103D000018C0E1FF19C0E2FF1AC0E7FF000E162439
:103D1000186E010E1720196E182AD8B0192A18C06B
:103D2000E1FF19C0E2FFFF0EE76E040E1226132A10
:103D3000132A100E1426D8B0152A100E1626D8B045
:103D4000172A112A92D7ECCF20F0ECCF1FF0ECCF3E
:103D50001EF0ECCF1DF0ECCF1CF0ECCF1BF0ECCF45
:103D60001AF0ECCF19F0ECCF18F0ECCF17F0ECCF45
:103D700016F0ECCF15F0ECCF14F0ECCF13F0ECCF45
:103D800012F0ECCF11F0ECCF10F0ECCFD9FF120015
:103D900003EE7FF023EE7FF07AEF21F003EE7FF069
:103DA00023EE7FF04EEF1FF023EE3FF0E9CFDDFF73
:103DB000EACFDDFF03EE3DF04AEC23F03FC3E9FF1D
:103DC0003EC3EAFF1200120003EE7FF023EE7FF005
:103DD00058EF23F003EE7FF023EE7FF057EF23F050
:103DE00003EE7FF023EE7FF005C0EDFF04C0EDFF92
:103DF0000350C3EF1FF003EE7FF023EE7FF005C00A
:103E0000EDFF04C0EDFF03C0EDFFED6EF5EF22F016
:103E100003EE7FF023EE7FF056EF23F003EE7FF00A
:103E200023EE7FF030EF20F01200120003EE7FF05F
:103E300023EE7FF004C0EDFF80EF19F003EE7FF07A
:103E400023EE7FF004C0EDFFEEEF22F023EE3FF013
:103E5000E9CFDDFFEACFDDFF03EE3DF055EC23F0C7
:103E60003FC3E9FF3EC3EAFF120023EE3FF0E9CF74
:103E7000DDFFEACFDDFF03EE3DF054EC23F03FC35E
:103E8000E9FF3EC3EAFF120003EE7FF023EE7FF06E
:103E900005C0EDFF04C0EDFFE7EF22F010C0EDFF1D
:103EA00011C0EDFF0001E45101E168D00001E451CF
:103EB000010A01E041D0010E0001E65D02E12C0E95
:103EC000E55D3AE3D1EC22F00001E05125E1000E7E
:103ED00007EC1EF0000E91EC20F0010E07EC1EF036
:103EE000010E106E100E105C05E2105091EC20F0E7
:103EF000102AF8D7000EBCEC21F0000EEAEC21F0FD
:103F0000C9EC1BF00A0EED6E050EED6EFF0E35ECE2
:103F100021F0020EE92632D0010E07EC1EF0000E51
:103F2000EAEC21F00A0EED6E020EED6EFF0E35EC9E
:103F300021F0020EE92622D00001E451020A1EE11E
:103F4000E9C010F0116A11500001E65D02E1105065
:103F5000E55D14E3020E0001E85D0CE3E8C010F03B
:103F6000E807010E1016105005EC21F00001E56B7A
:103F7000E66B04D0D1EC22F00BEC1DF0ECCF11F08D
:103F8000ECCF10F01200D9CFEDFFE9CFD9FF10C070
:103F9000EDFF11C0EDFF12C0EDFF13C0EDFF14C027
:103FA000EDFF15C0EDFF16C0EDFF17C0EDFF106E61
:103FB000020EDBCF11F0030EDBCF12F0F00E101467
:103FC000136E0F0E10161350C00A05E01350D00ADE
:103FD00002E0146A02D0010E146E1450D880E86614
:103FE000D890146A1436156A100E155C26E210502B
:103FF000100DF3CF16F0F4CF17F0000E1626010EB9
:10400000172215501626E86A172216C0E1FF17C0BE
:10401000E2FFE7CF16F01650FF0A0FE01350162606
:10402000165024EC16F0115024EC16F0145003E056
:10403000125024EC16F0152AD7D7ECCF17F0ECCF9E
:1040400016F0ECCF15F0ECCF14F0ECCF13F0ECCF72
:1040500012F0ECCF11F0ECCF10F0ECCFD9FF120042
:10406000D9CFEDFFE9CFD9FF10C0EDFF11C0EDFFB3
:10407000106EF00E105CD870116A11361150D8A471
:104080003DD0105024EC16F0115035E1F40E105CC8
:1040900032E2100E1024116E12C0EDFF13C0EDFFBE
:1040A000136A11341336E8341336FC0B126E000E0B
:1040B000FB6E400EFA6ECE0E12261350FA22D8B0C6
:1040C000FB2A1250ECCF13F0ECCF12F0F96E77EF21
:1040D00020F06FEF20F073EF20F06FEF20F0010E73
:1040E0000001EA6F17D0020E0001EA6F13D0FF0E35
:1040F0000001EA6F0FD00001EA6B0CD00001EA5119
:1041000009E0105024EC16F00001EA51FF0A02E029
:104110000001EA07ECCF11F0ECCF10F0ECCFD9FFA3
:104120001200D9CFEDFFE9CFD9FF10C0EDFF11C0CC
:10413000EDFF12C0EDFF13C0EDFF14C0EDFF106ED8
:10414000116A11321032113210321130C00B1018B6
:10415000101A1018116E000E136E800E126E800E63
:10416000146E1450ED6E1350ED6E1250ED6E115032
:10417000ED6E105037EC22F0040EE926ECCF14F06F
:10418000ECCF13F0ECCF12F0ECCF11F0ECCF10F03D
:10419000ECCFD9FF1200D9CFEDFFE9CFD9FF10C086
:1041A000EDFF11C0EDFF12C0EDFF13C0EDFF14C015
:1041B000EDFF106E116A11321032113210321130CF
:1041C000C00B1018101A1018116E000E136E800E0E
:1041D000126E800E146E1450ED6E1350ED6E125070
:1041E000ED6E1150ED6E105042EC22F0040EE926F7
:1041F000ECCF14F0ECCF13F0ECCF12F0ECCF11F0C9
:10420000ECCF10F0ECCFD9FF1200D9CFEDFFE9CF02
:10421000D9FF10C0EDFF11C0EDFF106E0001E75196
:10422000FF0A15E1105003E0FF0E116E01D0116A74
:1042300011C010F01050ED6E010E09EC23F0E92AC8
:104240001050ED6E020E09EC23F0E92A07D0105051
:10425000ED6E0001E75103EC23F0E92AECCF11F0F9
:10426000ECCF10F0ECCFD9FF1200D9CFEDFFE9CFA2
:10427000D9FF10C0EDFF11C0EDFF0001E76F020E86
:10428000DBCF10F0030EDBCFE9F010501024116EDD
:1042900011280001E86F000E05EC21F0020ED5ECAC
:1042A00021F0ECCF11F0ECCF10F0ECCFD9FF1200E1
:1042B000F66EE9CFD9FFDCCFF7FFDC50E8BE08D0BF
:1042C000F86E0900F55003E094EC16F0FAD71200EE
:1042D000D9CF06F0DACF07F0F6CFD9FFF7CFDAFF64
:1042E000DE5003E094EC16F0FBD706C0D9FF07C000
:1042F000DAFF1200030E80EC16F0030E78EC16F0D5
:10430000140E12EC17F0400EEEEC16F0000E4FEC0F
:1043100023F00001E06F010E4FEC23F00001E16F8C
:10432000020E4FEC23F00001E26F0001E151CBECF3
:1043300020F00BEC1DF01200E9CFD9FF0A6EDCCFA4
:10434000E1FFDCCFE2FFDC52DCCF03F0DCCF04F096
:10435000E6CF06F0E6CF07F010EE06F00A50DCECF0
:1043600016F0E9CFD9FFDCCFE1FFDCCFE2FF06C0DA
:10437000E6FF07C0E6FF1200D9CFEDFFE9CFD9FF76
:1043800010C0EDFF106E10C0E1F01050CBEC20F02B
:10439000C9EC1BF01050ED6E010E33EC23F0E92A4E
:1043A000ECCF10F0ECCFD9FF1200D9CFEDFFE9CF61
:1043B000D9FF0001E46F0001E56BE66BC30EED6E03
:1043C000500EED6E010EC1EC22F0020EE926ECCF8C
:1043D000D9FF1200D9CFEDFFE9CFD9FF10C0EDFF13
:1043E000106E10C0E2F01050ED6E020E33EC23F0B0
:1043F000E92AECCF10F0ECCFD9FF12000100020047
:1044000004000800100020004000800000010002AD
:10441000000400080010002000400080D9CFEDFF0C
:10442000E9CFD9FF0001E06FE051ED6E000E33ECF3
:1044300023F0E92AECCFD9FF1200F66EE9CFD9FFBD
:10444000DCCFF7FFDCCFF8FFDCCFE1FFDCCFE2FF12
:10445000B4EF16F0F66EE9CFD9FFDCCFF7FFDCCF73
:10446000F8FFDCCFE1FFDCCFE2FFB6EF16F0036E22
:10447000E9CFD9FFDCCF04F0DCCFE1FFDCCFE2FFF6
:10448000F2EF16F0036EE9CFD9FFDCCF04F0DCCFFA
:10449000E1FFDCCFE2FF18EF17F0E9CFD9FFDCCF67
:1044A000F8FFDCCFF7FFDCCFF6FF9CEF16F0E9CF8B
:1044B000D9FF036EDCCF04F0DCCF05F0DC50A8EFB1
:1044C00016F0E9CFD9FFDCCFF6FFDCCFF7FFDCCF6A
:1044D000F8FFE4EF16F0F66EE9CFD9FFDCCFF7FF77
:1044E000DCCFF8FF9AEF16F0F66EE9CFD9FFDCCFFC
:1044F000F7FFDCCFF8FF9EEF16F0F66EE9CFD9FF9D
:10450000DCCFF7FFDCCFF8FFE6EF16F0F66EE9CF71
:10451000D9FFDCCFF7FFDCCFF8FFAAEF16F0A96ECA
:10452000E9CFD9FFDCCFE1FFDCCFE2FF1AEF17F0D4
:10453000A96EE9CFD9FFDCCFE1FFDCCFE2FF1CEFB2
:1045400017F0E9CFD9FFDCCF03F0DCCF04F052EF56
:1045500016F0E9CFD9FFDCCF03F0DCCF04F074EF25
:1045600016F0E9CFD9FFDCCF03F0DCCF04F0A4EFE5
:1045700016F0036EE9CFD9FFDCCF04F0DC50BAEFC0
:1045800016F0E9CFD9FFDCCF03F0DCCF04F0BCEFAD
:1045900016F0E9CFD9FFDCCF03F0DCCF04F01EEF3B
:1045A00017F0C0EC16F00001E46B0001E56BE66B60
:1045B0001200036EE9CFD9FFDCCF04F0B8EF16F09C
:1045C0001200120012001200120012001200D9CFC5
:1045D000EDFFE9CFD9FFECCFD9FF1200D9CFEDFF26
:1045E000E9CFD9FFECCFD9FF1200D9CFEDFFE9CF4A
:1045F000D9FFECCFD9FF120001007E460000E00099
:1046000000000B000000E9CFD9FFDCCF03F060EF22
:1046100016F0E9CFD9FFDCCF03F068EF16F0E9CF51
:10462000D9FFDCCF03F06AEF16F0E9CFD9FFDCCF7A
:1046300003F06EEF16F0E9CFD9FFDCCF03F072EF95
:1046400016F0E9CFD9FFDCCF03F0F6EF16F0E9CF93
:10465000D9FFDCCF03F0F8EF16F0E9CFD9FFDCCFBC
:1046600003F0AEEF16F0A96EE9CFD9FFDC50B2EF40
:1046700016F0E9CFD9FFDCCF03F0F4EF16F000001D
:10468000000000000000000000003AEC16F004C03A
:10469000F3FF12000001E52B01E3E62B1200A96EE7
:1046A000B0EF16F0A6EF16F0120012001200120082
:0246B0001200F6
:00000001FF
