:020000040000FA
:1030000005EF21F00BEF21F011EF21F020EF21F07F
:1030100021EF21F027EF21F063EF21F072EF21F093
:1030200053EF21F05BEF21F081EF21F04BEF21F026
:1030300045EF21F02DEF21F038EF21F01DEF25F0C5
:103040001EEF25F01FEF25F020EF25F052EF21F0C5
:1030500051EF21F021EF25F022EF25F023EF25F0AD
:103060001200000012000000120000001200000018
:103070001200000012000000120000001200000008
:10308000FFFFFFFFFFFFFFFFFFFFFFFFFFFFFFFF50
:10309000FFFFFFFFFFFFFFFFFFFFFFFFFFFFFFFF40
:10330000D9CFEDFFE9CFD9FF10C0EDFF11C0EDFF20
:1033100012C0EDFF13C0EDFF14C0EDFF15C0EDFFAF
:1033200016C0EDFF17C0EDFF18C0EDFF19C0EDFF8F
:10333000106E116A126A060E105CD8B09DEF1BF079
:103340001AC0EDFF1BC0EDFF1B6A10341B36E834BA
:103350001B36FC0B1A6E000EFB6E330EFA6E760EE9
:103360001A261B50FA22D8B0FB2A1A50ECCF1BF0B9
:10337000ECCF1AF0F96EC7EF19F022EF1AF081EFD7
:103380001AF0B4EF1AF00BEF1BF046EF1BF0106AC7
:10339000136A146A100E105CD8B0CFD1800E1424BA
:1033A000156E166A000E162215C0E1FF16C0E2FF68
:1033B000E6CF15F0E7CF16F015501610D8B43CD074
:1033C0000001E451FF0A1FE0D8900001E435176EB8
:1033D000186A196A760E1726480E1822000E19224E
:1033E00017C0F6FF18C0F7FF19C0F8FF0900F5CFA6
:1033F00017F00900F5CF18F01750151618501616CB
:103400001550161019E0760E1324156E166A480E24
:103410001622176A000E172215C0F6FF16C0F7FF16
:1034200017C0F8FF0900F5CF15F00900F5CF16F029
:103430001550111216501212132A132A040E1426B4
:10344000102AA8D7106A136A146A100E105CD8B03C
:1034500074D1800E1424156E166A000E1622020E08
:103460001526D8B0162A15C0E1FF16C0E2FFE6CF38
:1034700015F0E7CF16F015501610D8B43CD0000167
:10348000E451FF0A1FE0D8900001E435176E186A76
:10349000196A760E1726480E1822000E192217C038
:1034A000F6FF18C0F7FF19C0F8FF0900F5CF17F0B5
:1034B0000900F5CF18F017501516185016161550AC
:1034C000161019E0760E1324156E166A480E162291
:1034D000176A000E172215C0F6FF16C0F7FF17C0B7
:1034E000F8FF0900F5CF15F00900F5CF16F01550DB
:1034F000111216501212132A132A040E1426102A1F
:10350000A4D70001E451FF0A1CE1106A136A100EEF
:10351000105CD8B012D1800E1324146E156A000E00
:10352000152214C0E1FF15C0E2FFE6CF14F0E7CF8B
:1035300015F01450111215501212040E1326102AF1
:10354000E6D70001E451040DF3CF10F0136A800EAA
:103550001026000E132210C0E1FF13C0E2FFE6CFD9
:1035600011F0E7CF12F0E9D0106A136A146A100E56
:10357000105CD8B0E2D0800E1424156E166A000ECE
:103580001622020E1526D8B0162A15C0E1FF16C065
:10359000E2FFE6CF15F0E7CF16F01550161035E034
:1035A0000001E451FF0A1FE0D8900001E435176ED6
:1035B000186A196A760E1726480E1822000E19226C
:1035C00017C0F6FF18C0F7FF19C0F8FF0900F5CFC4
:1035D00017F00900F5CF18F01750151618501616E9
:1035E0001550161012E0800E1324156E166A000E88
:1035F000162215C0E1FF16C0E2FFE6CF15F0E7CFB7
:1036000016F01550111216501212040E1326040E45
:103610001426102AACD70001E451FF0A20E1106AF9
:10362000136A100E105CD8B088D0800E1324146E6C
:10363000156A000E1522020E1426D8B0152A14C0E1
:10364000E1FF15C0E2FFE6CF14F0E7CF15F014500C
:10365000111215501212040E1326102AE2D700017F
:10366000E451040DF3CF10F0136A800E1026000E03
:103670001322020E1026D8B0132A10C0E1FF13C087
:10368000E2FFE6CF11F0E7CF12F057D0106A136ACD
:10369000146A100E105CD8B050D0800E1424156E31
:1036A000166A000E162215C0E1FF16C0E2FFE6CF33
:1036B00015F0E7CF16F01550161039E00001E4516F
:1036C000FF0A1FE0D8900001E435176E186A196AE6
:1036D000760E1726480E1822000E192217C0F6FF84
:1036E00018C0F7FF19C0F8FF0900F5CF17F009005F
:1036F000F5CF18F01750151618501616155016104D
:1037000016E0800E1324156E166A000E1622020EA5
:103710001526D8B0162A15C0E1FF16C0E2FFE6CF85
:1037200015F0E7CF16F01550111216501212040EB4
:103730001326040E1426102AACD71150106E136AEB
:103740001050ED6E010E46EC25F0E92A1250116E74
:10375000126A126A1150ED6E020E46EC25F0E92A4B
:10376000ECCF19F0ECCF18F0ECCF17F0ECCF16F04F
:10377000ECCF15F0ECCF14F0ECCF13F0ECCF12F04F
:10378000ECCF11F0ECCF10F0ECCFD9FF1200D9CF75
:10379000EDFFE9CFD9FF10C0EDFF11C0EDFF12C062
:1037A000EDFF13C0EDFF14C0EDFF15C0EDFF16C017
:1037B000EDFF17C0EDFF18C0EDFF19C0EDFF106E53
:1037C000020EDBCF11F00001E551010A03E10EEC1E
:1037D00025F007D00001E551020A03E1115001E193
:1037E000CED1080E105CD8A0A4D11150D8A4A1D17C
:1037F000F80E10240001E46FE3C012F0136A131CEA
:10380000156E121C146E144A152A125014161350F9
:1038100015161450121803E11550131801E0ADD11C
:10382000040E0001E05DD8B0A8D11AC0EDFF1BC0A6
:10383000EDFF1B6AE0351B36E8341B36FC0B1A6EB5
:10384000000EFB6E380EFA6E600E1A261B50FA221E
:10385000D8B0FB2A1A50ECCF1BF0ECCF1AF0F96E5F
:1038600038EF1CF058EF1CF05DEF1CF0FBEF1CF084
:10387000000EC6EC16F0126E0001E3511216125043
:1038800012E00001E151CEEC22F0080E0001E1252A
:10389000126E320EED6E000EED6E125072EC23F0D1
:1038A000020EE9266AD10001E451F9EC23F065D15A
:1038B0000001E45127EC24F060D1020EC6EC16F0B2
:1038C000126E0001E35112161250D8B44DD000010F
:1038D000E251040DF3CF12F0136A800E1226000E8F
:1038E000132212C014F013C015F012C0E1FF13C070
:1038F000E2FFE6CF12F0E7CF13F0D8900001E435F5
:10390000166E176A186A760E1626480E1722000ED3
:10391000182216C0F6FF17C0F7FF18C0F8FF0900FD
:10392000F5CF16F00900F5CF17F016501214186EE7
:1039300017501314196E1850191007E0165012186A
:10394000186E17501318196E06D016501210186EF4
:1039500017501310196E14C0E1FF15C0E2FF18C014
:10396000E6FF19C0E7FF44D00001E251040DF3CF98
:1039700012F0136A800E1226000E132212C014F0E9
:1039800013C015F012C0E1FF13C0E2FFE6CF12F042
:10399000E7CF13F0D8900001E435166E176A186A65
:1039A000760E1626480E1722000E182216C0F6FFB5
:1039B00017C0F7FF18C0F8FF0900F5CF16F009008F
:1039C000F5CF17F01250161803E11350171801E045
:1039D00003D0126A136A04D016C012F017C013F095
:1039E00014C0E1FF15C0E2FF12C0E6FF13C0E7FFFD
:1039F000D6EC1DF0C2D0030EC6EC16F0126E00011C
:103A0000E35112161250D8B44DD00001E251040D0A
:103A1000F3CF12F0136A800E1226000E1322020E4C
:103A20001226D8B0132A12C0E1FF13C0E2FFE6CF7E
:103A300014F0E7CF15F0D8900001E435166E176A40
:103A4000186A760E1626480E1722000E182216C087
:103A5000F6FF17C0F7FF18C0F8FF0900F5CF16F002
:103A60000900F5CF17F016501414186E17501514DE
:103A7000196E1850191007E016501418186E1750C8
:103A80001518196E06D016501410186E1750151010
:103A9000196E12C0E1FF13C0E2FF18C0E6FF19C0A3
:103AA000E7FF44D00001E251040DF3CF12F0136A96
:103AB000800E1226000E1322020E1226D8B0132AF0
:103AC00012C0E1FF13C0E2FFE6CF14F0E7CF15F01C
:103AD000D8900001E435166E176A186A760E16261D
:103AE000480E1722000E182216C0F6FF17C0F7FF67
:103AF00018C0F8FF0900F5CF16F00900F5CF17F050
:103B00001450161803E11550171801E003D0146A79
:103B1000156A04D016C014F017C015F012C0E1FFEA
:103B200013C0E2FF14C0E6FF15C0E7FFD6EC1DF09E
:103B300024D0040E105C21E2FF0E0001E46F11504E
:103B400009E01050C6EC16F0116E111E1150000164
:103B5000E31713D00001E35109E110504BEC24F0BE
:103B6000020E105C03E2010E12EC24F01050C6ECC1
:103B700016F0106E10500001E31318EC1FF0ECCF9C
:103B800019F0ECCF18F0ECCF17F0ECCF16F0ECCF2B
:103B900015F0ECCF14F0ECCF13F0ECCF12F0ECCF2B
:103BA00011F0ECCF10F0ECCFD9FF120010C0EDFFF8
:103BB00011C0EDFF12C0EDFF13C0EDFF14C0EDFF0B
:103BC00015C0EDFF16C0EDFF17C0EDFF18C0EDFFEB
:103BD00019C0EDFF1AC0EDFF1BC0EDFF1CC0EDFFCB
:103BE0001DC0EDFF1EC0EDFF1FC0EDFF20C0EDFFAB
:103BF00021C0EDFF106A116A100E105C12E2C00EB7
:103C00001124126E136A000E132212C0E1FF13C0BA
:103C1000E2FF000EE66E000EE76E112A112A102A4E
:103C2000EBD7106A100E105CD8B06ED0116A126A11
:103C3000100E115CD8B066D0800E1224136E146A78
:103C4000000E1422156A166A100E155CD8B054D0F6
:103C500013C0E1FF14C0E2FFE6CF17F0E7CF18F082
:103C6000760E1624196E1A6A480E1A221B6A000E66
:103C70001B2219C0F6FF1AC0F7FF1BC0F8FF09008E
:103C8000F5CF19F00900F5CF1AF0195017161A5090
:103C90001816175018102CE0C00E1624176E186A4C
:103CA000000E182217C0E1FF18C0E2FFE6CF19F09E
:103CB000E7CF1AF0800E12241B6E1C6A000E1C2225
:103CC000020E1B26D8B01C2A1BC0E1FF1CC0E2FF5D
:103CD000E6CF1BF0E7CF1CF01B5019121C501A1234
:103CE00017C0E1FF18C0E2FF19C0E6FF1AC0E7FFE6
:103CF000162A162A152AA8D715C010F0040E122667
:103D0000112A96D7102A8ED7106A116A126A136A7E
:103D1000146A156A100E105CD8B065D0000E11241C
:103D2000166E010E1220176EC00E1324186E196A3B
:103D3000000E19221A6A1B6A1C6A100E1B5C36E2FE
:103D400018C0E1FF19C0E2FFE6CF1DF0E7CF1EF07B
:103D5000760E1C241F6E206A480E2022216A000E57
:103D600021221FC0F6FF20C0F7FF21C0F8FF090085
:103D7000F5CF1FF00900F5CF20F01F501D16205081
:103D80001E161D501E100EE01AC01DF01A2A1E6AC3
:103D900016501D2617501E221DC0E1FF1EC0E2FF57
:103DA0001BC0E7FF1C2A1C2A1B2AC7D7000E14249D
:103DB000166E010E1520176E186A16501A26175027
:103DC00018221AC0E1FF18C0E2FFFF0EE76E100EC6
:103DD0001126D8B0122A132A132A100E1426D8B08E
:103DE000152A102A97D7ECCF21F0ECCF20F0ECCF9A
:103DF0001FF0ECCF1EF0ECCF1DF0ECCF1CF0ECCFA1
:103E00001BF0ECCF1AF0ECCF19F0ECCF18F0ECCFA0
:103E100017F0ECCF16F0ECCF15F0ECCF14F0ECCFA0
:103E200013F0ECCF12F0ECCF11F0ECCF10F0120049
:103E300010C0EDFF11C0EDFF0001E551020A01E1E4
:103E40001ED10001E051C6EC16F0106E1050ED6E60
:103E5000000E46EC25F0E92A000EED6E010E46EC50
:103E600025F0E92A000EED6E020E46EC25F0E92A57
:103E7000040E0001E05DD8B002D112C0EDFF13C006
:103E8000EDFF136AE0351336E8341336FC0B126E7F
:103E9000000EFB6E3E0EFA6EB00E12261350FA2282
:103EA000D8B0FB2A1250ECCF13F0ECCF12F0F96E21
:103EB00060EF1FF07EEF1FF0ACEF1FF0F2EF1FF08E
:103EC000080E0001E15D0BE2E151C6EC16F0106E48
:103ED0001050ED6E010E46EC25F0E92AD0D0F80E18
:103EE0000001E125106E1050C6EC16F0106E105057
:103EF000ED6E020E46EC25F0E92AC1D00001E35137
:103F0000060A04E1000E80EC19F0B9D00001E3517B
:103F10000A0A04E1010E80EC19F0B1D0080E00018C
:103F2000E25D0BE2E251C6EC16F0106E1050ED6E41
:103F3000010E46EC25F0E92AA2D0F80E0001E22598
:103F4000106E1050C6EC16F0106E1050ED6E020E92
:103F500046EC25F0E92A93D00001E351060A04E17A
:103F6000020E80EC19F08BD00001E3510C0A04E141
:103F7000030E80EC19F083D00001E251040DF3CF61
:103F800010F0116A800E1026000E112210C0E1FF01
:103F900011C0E2FFE6CF10F0E7CF11F0116A105028
:103FA000ED6E010E46EC25F0E92A0001E251040D08
:103FB000F3CF10F0116A800E1026000E112210C0EF
:103FC000E1FF11C0E2FFE6CF10F0E7CF11F0115092
:103FD000106E116A116A1050ED6E020E46EC25F05B
:103FE000E92A4DD00001E3510A0A04E1040E80ECF5
:103FF00019F045D00001E3510C0A04E1050E80ECF4
:1040000019F03DD00001E251040DF3CF10F0116A18
:10401000800E1026000E1122020E1026D8B0112A92
:1040200010C0E1FF11C0E2FFE6CF10F0E7CF11F0C2
:10403000116A1050ED6E010E46EC25F0E92A0001E0
:10404000E251040DF3CF10F0116A800E1026000E1D
:104050001122020E1026D8B0112A10C0E1FF11C0A3
:10406000E2FFE6CF10F0E7CF11F01150106E116AA9
:10407000116A1050ED6E020E46EC25F0E92AECCFE5
:1040800011F0ECCF10F01200D9CFEDFFE9CFD9FF3E
:1040900010C0EDFF11C0EDFF12C0EDFF13C0EDFF2A
:1040A00014C0EDFF15C0EDFF16C0EDFF17C0EDFF0A
:1040B00018C0EDFF19C0EDFF1AC0EDFF1BC0EDFFEA
:1040C0001CC0EDFF1DC0EDFF1EC0EDFF1FC0EDFFCA
:1040D00020C0EDFF106E116A126A136A146A156A25
:1040E000166A176A100E115CD8B06AD0800E1224BE
:1040F000186E196A000E1922800E12241A6E1B6A9D
:10410000000E1B22020E1A26D8B01B2A105003E004
:104110001C6A1D6A15D0760E13241E6E1F6A480E87
:104120001F22206A000E20221EC0F6FF1FC0F7FFCC
:1041300020C0F8FF0900F5CF1CF00900F5CF1DF0F5
:104140001AC0E1FF1BC0E2FF1CC0E6FF1DC0E7FF75
:1041500018C0E1FF19C0E2FF1CC0E6FF1DC0E7FF69
:10416000000E1424186E010E1520196E105003E075
:10417000FF0E1A6E02D011C01AF018C0E1FF19C06C
:10418000E2FF1AC0E7FF000E1624186E010E17207A
:10419000196E182AD8B0192A18C0E1FF19C0E2FF19
:1041A000FF0EE76E040E1226132A132A100E142691
:1041B000D8B0152A100E1626D8B0172A112A92D771
:1041C000ECCF20F0ECCF1FF0ECCF1EF0ECCF1DF0C9
:1041D000ECCF1CF0ECCF1BF0ECCF1AF0ECCF19F0C9
:1041E000ECCF18F0ECCF17F0ECCF16F0ECCF15F0C9
:1041F000ECCF14F0ECCF13F0ECCF12F0ECCF11F0C9
:10420000ECCF10F0ECCFD9FF120003EE7FF023EEDD
:104210007FF0B7EF23F003EE7FF023EE7FF08BEF1C
:1042200021F023EE3FF0E9CFDDFFEACFDDFF03EE23
:104230003DF087EC25F03FC3E9FF3EC3EAFF1200E3
:10424000120003EE7FF023EE7FF095EF25F003EEF2
:104250007FF023EE7FF094EF25F003EE7FF023EE66
:104260007FF005C0EDFF04C0EDFF035000EF22F02A
:1042700003EE7FF023EE7FF005C0EDFF04C0EDFFFD
:1042800003C0EDFFED6E32EF25F003EE7FF023EE7D
:104290007FF093EF25F003EE7FF023EE7FF06DEFDC
:1042A00022F01200120003EE7FF023EE7FF004C034
:1042B000EDFFC7EF1BF003EE7FF023EE7FF004C0AD
:1042C000EDFF2BEF25F023EE3FF0E9CFDDFFEACF46
:1042D000DDFF03EE3DF092EC25F03FC3E9FF3EC366
:1042E000EAFF120023EE3FF0E9CFDDFFEACFDDFF6A
:1042F00003EE3DF091EC25F03FC3E9FF3EC3EAFF3A
:10430000120003EE7FF023EE7FF005C0EDFF04C046
:10431000EDFF24EF25F010C0EDFF11C0EDFF00010F
:10432000E55101E168D00001E551010A01E041D009
:10433000010E0001E75D02E12C0EE65D3AE30EECB2
:1043400025F00001E05125E1000E44EC20F0000EC4
:10435000CEEC22F0010E44EC20F0010E106E100E97
:10436000105C05E21050CEEC22F0102AF8D7000EB7
:10437000F9EC23F0000E27EC24F0D6EC1DF00A0E29
:10438000ED6E050EED6EFF0E72EC23F0020EE926C7
:1043900032D0010E44EC20F0000E27EC24F00A0E7F
:1043A000ED6E020EED6EFF0E72EC23F0020EE926AA
:1043B00022D00001E551020A1EE1EAC010F0116AA4
:1043C00011500001E75D02E11050E65D14E3020EBA
:1043D0000001E95D0CE3E9C010F0E907010E1016D9
:1043E000105042EC23F00001E66BE76B04D00EECBA
:1043F00025F018EC1FF0ECCF11F0ECCF10F012000C
:10440000D9CFEDFFE9CFD9FF10C0EDFF11C0EDFF0F
:1044100012C0EDFF13C0EDFF14C0EDFF15C0EDFF9E
:1044200016C0EDFF17C0EDFF106E020EDBCF11F0CE
:10443000030EDBCF12F0F00E1014136E0F0E1016D9
:104440001350C00A05E01350D00A02E0146A02D0EB
:10445000010E146E1450D880E866D890146A143691
:10446000156A100E155C26E21050100DF3CF16F0F1
:10447000F4CF17F0000E1626010E1722155016263F
:10448000E86A172216C0E1FF17C0E2FFE7CF16F077
:104490001650FF0A0FE013501626165024EC16F0A3
:1044A000115024EC16F0145003E0125024EC16F0D6
:1044B000152AD7D7ECCF17F0ECCF16F0ECCF15F0CC
:1044C000ECCF14F0ECCF13F0ECCF12F0ECCF11F0F6
:1044D000ECCF10F0ECCFD9FF1200D9CFEDFFE9CF30
:1044E000D9FF10C0EDFF11C0EDFF106EF00E105C93
:1044F000D870116A11361150D8A43DD0105024EC58
:1045000016F0115035E1F40E105C32E2100E10245A
:10451000116E12C0EDFF13C0EDFF136A1134133694
:10452000E8341336FC0B126E000EFB6E450EFA6E6D
:10453000480E12261350FA22D8B0FB2A1250ECCFA4
:1045400013F0ECCF12F0F96EB4EF22F0ACEF22F0E2
:10455000B0EF22F0ACEF22F0010E0001EB6F17D0AC
:10456000020E0001EB6F13D0FF0E0001EB6F0FD0B6
:104570000001EB6B0CD00001EB5109E0105024EC72
:1045800016F00001EB51FF0A02E00001EB07ECCF4F
:1045900011F0ECCF10F0ECCFD9FF1200D9CFEDFF26
:1045A000E9CFD9FF10C0EDFF11C0EDFF12C0EDFF44
:1045B00013C0EDFF14C0EDFF106E116A11321032FE
:1045C000113210321130C00B1018101A1018116E61
:1045D000000E136E800E126E800E146E1450ED6E6F
:1045E0001350ED6E1250ED6E1150ED6E105074ECD4
:1045F00024F0040EE926ECCF14F0ECCF13F0ECCF4E
:1046000012F0ECCF11F0ECCF10F0ECCFD9FF12008C
:10461000D9CFEDFFE9CFD9FF10C0EDFF11C0EDFFFD
:1046200012C0EDFF13C0EDFF14C0EDFF106E116A54
:1046300011321032113210321130C00B1018101A12
:104640001018116E000E136E800E126E800E146E16
:104650001450ED6E1350ED6E1250ED6E1150ED6E64
:1046600010507FEC24F0040EE926ECCF14F0ECCFD0
:1046700013F0ECCF12F0ECCF11F0ECCF10F0ECCF48
:10468000D9FF1200D9CFEDFFE9CFD9FF10C0EDFF60
:1046900011C0EDFF106E0001E851FF0A15E1105046
:1046A00003E0FF0E116E01D0116A11C010F010501E
:1046B000ED6E010E46EC25F0E92A1050ED6E020E6B
:1046C00046EC25F0E92A07D01050ED6E0001E851C4
:1046D00040EC25F0E92AECCF11F0ECCF10F0ECCF54
:1046E000D9FF1200D9CFEDFFE9CFD9FF10C0EDFF00
:1046F00011C0EDFF0001E86F020EDBCF10F0030EDA
:10470000DBCFEAF01044FE0B116E11280001E96FB7
:10471000000E42EC23F0020E12EC24F0ECCF11F06C
:10472000ECCF10F0ECCFD9FF1200F66EE9CFD9FF35
:10473000DCCFF7FFDC50E8BE08D0F86E0900F5507A
:1047400003E094EC16F0FAD71200D9CF06F0DACFD6
:1047500007F0F6CFD9FFF7CFDAFFDE5003E094EC95
:1047600016F0FBD706C0D9FF07C0DAFF1200030E10
:1047700080EC16F0030E78EC16F0140E12EC17F025
:10478000400EEEEC16F0000E8CEC25F00001E06F10
:10479000010E8CEC25F00001E16F020E8CEC25F08F
:1047A0000001E26F0001E15108EC23F018EC1FF06A
:1047B0001200E9CFD9FF0A6EDCCFE1FFDCCFE2FFC8
:1047C000DC52DCCF03F0DCCF04F0E6CF06F0E6CF1E
:1047D00007F010EE06F00A50DCEC16F0E9CFD9FF36
:1047E000DCCFE1FFDCCFE2FF06C0E6FF07C0E6FF5B
:1047F0001200D9CFEDFFE9CFD9FF10C0EDFF106E49
:1048000010C0E1F0105008EC23F0D6EC1DF0105071
:10481000ED6E010E70EC25F0E92AECCF10F0ECCF34
:10482000D9FF1200D9CFEDFFE9CFD9FF0001E56F25
:104830000001E66BE76BC30EED6E500EED6E010EE0
:10484000FEEC24F0020EE926ECCFD9FF1200D9CFFE
:10485000EDFFE9CFD9FF10C0EDFF106E10C0E2F000
:104860001050ED6E020E70EC25F0E92AECCF10F03E
:10487000ECCFD9FF12000100020004000800100074
:104880002000400080000001000200040008001029
:10489000002000400080D9CFEDFFE9CFD9FF000113
:1048A000E06FE051ED6E000E70EC25F0E92AECCFE0
:1048B000D9FF1200F66EE9CFD9FFDCCFF7FFDCCFCE
:1048C000F8FFDCCFE1FFDCCFE2FFB4EF16F0F66ECD
:1048D000E9CFD9FFDCCFF7FFDCCFF8FFDCCFE1FF7A
:1048E000DCCFE2FFB6EF16F0036EE9CFD9FFDCCFE5
:1048F00004F0DCCFE1FFDCCFE2FFF2EF16F0036E55
:10490000E9CFD9FFDCCF04F0DCCFE1FFDCCFE2FF61
:1049100018EF17F0E9CFD9FFDCCFF8FFDCCFF7FFB6
:10492000DCCFF6FF9CEF16F0E9CFD9FF036EDCCFAA
:1049300004F0DCCF05F0DC50A8EF16F0E9CFD9FF8A
:10494000DCCFF6FFDCCFF7FFDCCFF8FFE4EF16F0AB
:10495000F66EE9CFD9FFDCCFF7FFDCCFF8FF9AEF97
:1049600016F0F66EE9CFD9FFDCCFF7FFDCCFF8FF0A
:104970009EEF16F0F66EE9CFD9FFDCCFF7FFDCCF64
:10498000F8FFE6EF16F0F66EE9CFD9FFDCCFF7FFC0
:10499000DCCFF8FFAAEF16F0A96EE9CFD9FFDCCF84
:1049A000E1FFDCCFE2FF1AEF17F0A96EE9CFD9FFE4
:1049B000DCCFE1FFDCCFE2FF1CEF17F0E9CFD9FF3E
:1049C000DCCF03F0DCCF04F052EF16F0E9CFD9FFD3
:1049D000DCCF03F0DCCF04F074EF16F0E9CFD9FFA1
:1049E000DCCF03F0DCCF04F0A4EF16F0036EE9CFC8
:1049F000D9FFDCCF04F0DC50BAEF16F0E9CFD9FFD5
:104A0000DCCF03F0DCCF04F0BCEF16F0E9CFD9FF28
:104A1000DCCF03F0DCCF04F01EEF17F0C0EC16F093
:104A20000001E56B0001E66BE76B1200036EE9CF56
:104A3000D9FFDCCF04F0B8EF16F01200120012001C
:104A40001200120012001200D9CFEDFFE9CFD9FFFA
:104A5000ECCFD9FF1200D9CFEDFFE9CFD9FFECCFD2
:104A6000D9FF1200D9CFEDFFE9CFD9FFECCFD9FFA5
:104A700012000100F84A0000E00000000C000000F5
:104A8000E9CFD9FFDCCF03F060EF16F0E9CFD9FF13
:104A9000DCCF03F068EF16F0E9CFD9FFDCCF03F0ED
:104AA0006AEF16F0E9CFD9FFDCCF03F06EEF16F016
:104AB000E9CFD9FFDCCF03F072EF16F0E9CFD9FFD1
:104AC000DCCF03F0F6EF16F0E9CFD9FFDCCF03F02F
:104AD000F8EF16F0E9CFD9FFDCCF03F0AEEF16F018
:104AE000A96EE9CFD9FFDC50B2EF16F0E9CFD9FFBC
:104AF000DCCF03F0F4EF16F000000000FF00000030
:104B0000000000003AEC16F004C0F3FF12000001B0
:104B1000E62B01E3E72B1200A96EB0EF16F0A6EF2B
:0C4B200016F01200120012001200120029
:00000001FF
