:020000040000FA
:103000006AEF1AF070EF1AF076EF1AF085EF1AF007
:1030100086EF1AF08CEF1AF0C8EF1AF0D7EF1AF01B
:10302000B8EF1AF0C0EF1AF0E6EF1AF0B0EF1AF0AE
:10303000AAEF1AF092EF1AF09DEF1AF074EF1CF05D
:1030400075EF1CF076EF1CF077EF1CF0B7EF1AF07D
:10305000B6EF1AF078EF1CF079EF1CF07AEF1CF065
:103060001200000012000000120000001200000018
:103070001200000012000000120000001200000008
:10308000FFFFFFFFFFFFFFFFFFFFFFFFFFFFFFFF50
:10309000FFFFFFFFFFFFFFFFFFFFFFFFFFFFFFFF40
:1033000010C0EDFF11C0EDFF12C0EDFF00018451B0
:10331000851124E182C010F083C011F00001822BDE
:1033200001E3832B000E115C02E1650E105C15E3D6
:10333000010E0001846F856B0001826B836B82EC50
:1033400016F0000E88EC16F0000EED6E360EED6EE7
:10335000820E5FEC1BF0020EE926B5D082C010F0A1
:1033600083C011F00001822B01E3832B000E115C5E
:1033700002E11F0E105CD8A0A6D00001826B836B07
:1033800000018451020A02E1855101E041D00001AF
:103390008051811119E0FF0E8025106EFF0E8121F2
:1033A000116ED89011321032D89011321032D8905C
:1033B000113210320F0E1016116A000EED6E105001
:1033C000A4EC1CF0E92A06D0000EED6E1F0E9EEC58
:1033D0001CF0E92AD89000018131116E8031106E05
:1033E000D89011321032D890113210320F0E1016C0
:1033F000116A070E8015116E126A1150C6EC16F094
:10340000116E1150ED6E1050A4EC1CF0E92A16D08C
:1034100000018051811109E08051106E1006000EEC
:10342000ED6E10509EEC1CF0E92A00018051106EE8
:10343000010EED6E10509EEC1CF0E92A400E88EC57
:1034400016F0000EED6E360EED6E900E5FEC1BF07A
:10345000020EE92680C010F081C011F00001802B1F
:1034600001E3812B105090EC16F0106A000180519E
:10347000200A03E1815101E1102A10500DE0000102
:103480008451020A02E1855101E006D0C0EC16F039
:103490000001846B856B17D0105015E0020E0001FF
:1034A000846F856B0001806B816B82EC16F0000EDF
:1034B00088EC16F0000EED6E360EED6E960E5FEC9B
:1034C0001BF0020EE926ECCF12F0ECCF11F0ECCF9E
:1034D00010F0120003EE7FF023EE7FF02EEF1BF0D2
:1034E00003EE7FF023EE7FF0E8EF1CF023EE3FF0D9
:1034F000E9CFDDFFEACFDDFF03EE3DF080EC19F010
:103500003FC3E9FF3EC3EAFF1200120003EE7FF063
:1035100023EE7FF0A1EF1BF003EE7FF023EE7FF0B0
:10352000E7EF1CF003EE7FF023EE7FF005C0EDFF28
:1035300004C0EDFF035097EF1CF003EE7FF023EE85
:103540007FF005C0EDFF04C0EDFF03C0EDFFED6EA1
:1035500090EF1CF003EE7FF023EE7FF0E6EF1CF01F
:1035600003EE7FF023EE7FF089EF1CF012001200D3
:1035700003EE7FF023EE7FF004C0EDFFF0EF1AF0D2
:1035800003EE7FF023EE7FF004C0EDFF82EF1CF02E
:1035900023EE3FF0E9CFDDFFEACFDDFF03EE3DF0A4
:1035A000E5EC1CF03FC3E9FF3EC3EAFF120023EE47
:1035B0003FF0E9CFDDFFEACFDDFF03EE3DF0E4ECC5
:1035C0001CF03FC3E9FF3EC3EAFF120003EE7FF0A9
:1035D00023EE7FF005C0EDFF04C0EDFF7BEF1CF094
:1035E000D9CFEDFFE9CFD9FF10C0EDFF11C0EDFF3E
:1035F000106E020EDBCF11F0115029E10001845151
:10360000851101E024D0200E105C10E210505EEC19
:1036100016F0116E1150D880E866D890116A1136F4
:103620001150ED6E10509EEC1CF0E92A82EC16F061
:10363000000E88EC16F0000EED6E360EED6E900E5C
:103640005FEC1BF0020EE926105090EC16F0ECCF68
:1036500011F0ECCF10F0ECCFD9FF1200030E80EC8C
:1036600016F0080E78EC16F0140E12EC17F00001AC
:10367000806B816B0001826B836B0001846B856BB7
:103680001200444F55542050696E53657420000059
:1036900050696E200000444F5554205352536574B6
:1036A000204269744F724D61736B000053746172F4
:1036B0007420444F555420546573742E2E00F66EBA
:1036C000E9CFD9FFDCCFF7FFDC50E8BE08D0F86EB9
:1036D0000900F55003E094EC16F0FAD71200D9CFA8
:1036E00006F0DACF07F0F6CFD9FFF7CFDAFFDE50DA
:1036F00003E094EC16F0FBD706C0D9FF07C0DAFF51
:103700001200E9CFD9FF0A6EDCCFE1FFDCCFE2FF88
:10371000DC52DCCF03F0DCCF04F0E6CF06F0E6CFDE
:1037200007F010EE06F00A50DCEC16F0E9CFD9FFF6
:10373000DCCFE1FFDCCFE2FF06C0E6FF07C0E6FF1B
:10374000120082EC16F0000E88EC16F0000EED6E02
:10375000360EED6EAC0E5FEC1BF0020EE926C30ECA
:10376000ED6E500EED6E020E5DEC1CF0020EE926C1
:103770001200F66EE9CFD9FFDCCFF7FFDCCFF8FF00
:10378000DCCFE1FFDCCFE2FFB4EF16F0F66EE9CF5D
:10379000D9FFDCCFF7FFDCCFF8FFDCCFE1FFDCCFD8
:1037A000E2FFB6EF16F0036EE9CFD9FFDCCF04F0ED
:1037B000DCCFE1FFDCCFE2FFF2EF16F0036EE9CFE2
:1037C000D9FFDCCF04F0DCCFE1FFDCCFE2FF18EF64
:1037D00017F0E9CFD9FFDCCFF8FFDCCFF7FFDCCF64
:1037E000F6FF9CEF16F0E9CFD9FF036EDCCF04F0B3
:1037F000DCCF05F0DC50A8EF16F0E9CFD9FFDCCF25
:10380000F6FFDCCFF7FFDCCFF8FFE4EF16F0F66E43
:10381000E9CFD9FFDCCFF7FFDCCFF8FF9AEF16F046
:10382000F66EE9CFD9FFDCCFF7FFDCCFF8FF9EEFD4
:1038300016F0F66EE9CFD9FFDCCFF7FFDCCFF8FF4B
:10384000E6EF16F0F66EE9CFD9FFDCCFF7FFDCCF5D
:10385000F8FFAAEF16F0A96EE9CFD9FFDCCFE1FFA0
:10386000DCCFE2FF1AEF17F0A96EE9CFD9FFDCCF6A
:10387000E1FFDCCFE2FF1CEF17F0E9CFD9FFDCCF8F
:1038800003F0DCCF04F052EF16F0E9CFD9FFDCCF24
:1038900003F0DCCF04F074EF16F0E9CFD9FFDCCFF2
:1038A00003F0DCCF04F0A4EF16F0036EE9CFD9FFEC
:1038B000DCCF04F0DC50BAEF16F0E9CFD9FFDCCF53
:1038C00003F0DCCF04F0BCEF16F0E9CFD9FFDCCF7A
:1038D00003F0DCCF04F01EEF17F0036EE9CFD9FF41
:1038E000DCCF04F0B8EF16F0120012001200120044
:1038F000120012001200D9CFEDFFE9CFD9FFECCFB3
:10390000D9FF1200D9CFEDFFE9CFD9FFECCFD9FF16
:103910001200D9CFEDFFE9CFD9FFECCFD9FF1200CC
:10392000D9CFEDFFE9CFD9FFECCFD9FF1200D9CF26
:10393000EDFFE9CFD9FFECCFD9FF1200E9CFD9FFD6
:10394000DCCF03F060EF16F0E9CFD9FFDCCF03F056
:1039500068EF16F0E9CFD9FFDCCF03F06AEF16F07D
:10396000E9CFD9FFDCCF03F06EEF16F0E9CFD9FF36
:10397000DCCF03F072EF16F0E9CFD9FFDCCF03F014
:10398000F6EF16F0E9CFD9FFDCCF03F0F8EF16F031
:10399000E9CFD9FFDCCF03F0AEEF16F0A96EE9CF87
:1039A000D9FFDC50B2EF16F0E9CFD9FFDCCF03F03E
:1039B000F4EF16F03AEC16F004C0F3FF1200A96E13
:1039C000B0EF16F0A6EF16F012001200120012006F
:0239D0001200E3
:00000001FF
