:020000040000FA
:1030000019EF1FF01FEF1FF025EF1FF034EF1FF037
:1030100035EF1FF03BEF1FF077EF1FF086EF1FF04B
:1030200067EF1FF06FEF1FF095EF1FF05FEF1FF0DE
:1030300059EF1FF041EF1FF04CEF1FF005EF22F0AA
:1030400006EF22F007EF22F008EF22F066EF1FF004
:1030500065EF1FF009EF22F00AEF22F00BEF22F0EC
:103060001200000012000000120000001200000018
:103070001200000012000000120000001200000008
:10308000FFFFFFFFFFFFFFFFFFFFFFFFFFFFFFFF50
:10309000FFFFFFFFFFFFFFFFFFFFFFFFFFFFFFFF40
:10330000D9CFEDFFE9CFD9FF10C0EDFF11C0EDFF20
:1033100012C0EDFF13C0EDFF14C0EDFF15C0EDFFAF
:1033200016C0EDFF17C0EDFF18C0EDFF19C0EDFF8F
:103330001AC0EDFF1BC0EDFF1CC0EDFF1DC0EDFF6F
:103340001EC0EDFF1FC0EDFF20C0EDFF21C0EDFF4F
:1033500022C0EDFF106E020EDBCF11F0C0EC16F0B4
:10336000115002E048EF1CF0080E105CD8A02CEFC2
:103370001CF0F80E1024116E040E0001C05DD8B0D0
:1033800046EF1CF023C0EDFF24C0EDFF246AC035DA
:103390002436E8342436FC0B236E000EFB6E330E0D
:1033A000FA6EBA0E23262450FA22D8B0FB2A2350F4
:1033B000ECCF24F0ECCF23F0F96EE5EF19F0F4EF49
:1033C00019F0FFEF19F0F5EF1AF011C0C1F000018C
:1033D000C15171EC1CF00001C151ED6E010E58ECB1
:1033E00022F0E92A46EF1CF011C0C2F00001C151E1
:1033F000ED6E030E58EC22F0E92A46EF1CF0020EA7
:103400005AEC16F0126E1250D8B444D00001C251DA
:10341000040DF3CF12F0800E1226000E136A132251
:1034200012C014F013C015F012C0E1FF13C0E2FF88
:10343000E6CF12F0E7CF13F0D8901134166E740E69
:103440001626420E176A1722000E186A182216C096
:10345000F6FF17C0F7FF18C0F8FF0900F5CF16F008
:103460000900F5CF17F01250161803E11350171882
:1034700001E003D0126A136A04D016C012F017C01C
:1034800013F014C0E1FF15C0E2FF12C0E6FF13C045
:10349000E7FF4BD00001C251040DF3CF12F0800EB4
:1034A0001226000E136A132212C014F013C015F076
:1034B00012C0E1FF13C0E2FFE6CF12F0E7CF13F036
:1034C000D8901134166E740E1626420E176A172203
:1034D000000E186A182216C0F6FF17C0F7FF18C0B2
:1034E000F8FF0900F5CF16F00900F5CF17F01650D8
:1034F0001214186E17501314196E1850191007E093
:1035000016501218186E17501318196E06D0165050
:103510001210186E17501310196E14C0E1FF15C069
:10352000E2FF18C0E6FF19C0E7FF1150100DF3CFFE
:1035300012F0F4CF13F0000E1226010E1322146ABB
:10354000156A166A100E155CD8B044D00001C2513D
:10355000040DF3CF17F0800E1726000E186A1822FC
:10356000020E1726D8B0182A17C0E1FF18C0E2FFD4
:10357000E6CF17F0E7CF18F0740E1624196E1A6A0A
:10358000420E1A221B6A000E1B2219C0F6FF1AC037
:10359000F7FF1BC0F8FF0900F5CF19F00900F5CFC0
:1035A0001AF0195017161A501816175018100EE066
:1035B00014C017F0142A125017261350186A182234
:1035C00017C0E1FF18C0E2FF15C0E7FF162A162A50
:1035D000152AB8D714501226E86A132212C0E1FF48
:1035E00013C0E2FFFF0EE76E51D1030E5AEC16F046
:1035F000126E1250D8B444D00001C251040DF3CF62
:1036000012F0800E1226000E136A1322020E1226EA
:10361000D8B0132A12C0E1FF13C0E2FFE6CF14F0C6
:10362000E7CF15F0D8901134166E740E1626420EA0
:10363000176A1722000E186A182216C0F6FF17C064
:10364000F7FF18C0F8FF0900F5CF16F00900F5CF15
:1036500017F01450161803E11550171801E003D0A5
:10366000146A156A04D016C014F017C015F012C001
:10367000E1FF13C0E2FF14C0E6FF15C0E7FF4AD028
:103680000001C251040DF3CF12F0800E1226000E7D
:10369000136A1322020E1226D8B0132A12C0E1FFB9
:1036A00013C0E2FFE6CF14F0E7CF15F0D890113643
:1036B000740E1126420E166A1622000E176A172281
:1036C00011C0F6FF16C0F7FF17C0F8FF0900F5CFCD
:1036D00011F00900F5CF16F011501414176E1650A2
:1036E0001514186E1750181007E011501418176EA3
:1036F00016501518186E06D011501410176E16506B
:103700001510186E12C0E1FF13C0E2FF17C0E6FFEC
:1037100018C0E7FF116A126A136A146A156A166AFA
:10372000100E115CD8B0B2D00001C251040DF3CF1D
:1037300017F0800E1724186E196A000E192218C08F
:10374000E1FF19C0E2FFE6CF18F0E7CF19F0740EE1
:1037500016241A6E1B6A420E1B221C6A000E1C22C3
:103760001AC0F6FF1BC0F7FF1CC0F8FF0900F5CF19
:103770001AF00900F5CF1BF01A5018161B50191635
:1037800018501910D8B45CD0000E1224186E010E17
:103790001320196E800E1726000E1A6A1A22020EC6
:1037A0001726D8B01A2A1B6A1C6A1D6A100E1C5CE8
:1037B00036E217C0E1FF1AC0E2FFE6CF1EF0E7CF06
:1037C0001FF0740E1D24206E216A420E2122226AEF
:1037D000000E222220C0F6FF21C0F7FF22C0F8FF12
:1037E0000900F5CF20F00900F5CF21F020501E167A
:1037F00021501F161E501F100EE01BC01EF01B2A6A
:1038000018501E2619501F6A1F221EC0E1FF1FC03C
:10381000E2FF1CC0E7FF1D2A1D2A1C2AC7D7000E85
:103820001424176E010E1520186E17501B26185001
:10383000196A19221BC0E1FF19C0E2FFFF0EE76EF3
:10384000100E1226D8B0132A100E1426D8B0152A3E
:10385000162A162A112A64D7040E105C17E210C02B
:10386000C0F00001C051ED6E000E58EC22F0E92AC4
:10387000020E105C0BE20001C36BFF0EED6EFF0E3B
:10388000ED6E030EEEEC21F0020EE92692EC1DF037
:10389000ECCF22F0ECCF21F0ECCF20F0ECCF1FF0FA
:1038A000ECCF1EF0ECCF1DF0ECCF1CF0ECCF1BF0FA
:1038B000ECCF1AF0ECCF19F0ECCF18F0ECCF17F0FA
:1038C000ECCF16F0ECCF15F0ECCF14F0ECCF13F0FA
:1038D000ECCF12F0ECCF11F0ECCF10F0ECCFD9FF21
:1038E0001200D9CFEDFFE9CFD9FF10C0EDFF11C015
:1038F000EDFF12C0EDFF13C0EDFF14C0EDFF15C0CA
:10390000EDFF16C0EDFF17C0EDFF18C0EDFF19C0A9
:10391000EDFF1AC0EDFF1BC0EDFF1CC0EDFF1DC089
:10392000EDFF1EC0EDFF1FC0EDFF20C0EDFF21C069
:10393000EDFF22C0EDFF23C0EDFF24C0EDFF25C049
:10394000EDFF106E1050400DF3CF10F0F4CF11F0DA
:10395000000E136E800E126E800E146E1450ED6EFB
:103960001350ED6E1250ED6E1150ED6E10506FEC65
:1039700021F0040EE926106A116A100E105CD8B00E
:10398000A2D0800E1124126E136A000E1322146A44
:10399000156A166A176A186A196A100E145CD8B08C
:1039A0008ED012C0E1FF13C0E2FFE6CF1AF0E7CFDE
:1039B0001BF0740E19241C6E1D6A420E1D221E6A15
:1039C000000E1E221CC0F6FF1DC0F7FF1EC0F8FF30
:1039D0000900F5CF1CF00900F5CF1DF01C501A1698
:1039E0001D501B161A501B10D8B45DD0000E1524A4
:1039F0001A6E010E16201B6E800E11241C6E1D6A9D
:103A0000000E1D22020E1C26D8B01D2A1E6A1F6A37
:103A1000206A100E1F5C36E21CC0E1FF1DC0E2FFF1
:103A2000E6CF21F0E7CF22F0740E2024236E246A23
:103A3000420E2422256A000E252223C0F6FF24C050
:103A4000F7FF25C0F8FF0900F5CF23F00900F5CFF7
:103A500024F02350211624502216215022100EE06B
:103A60001EC021F01E2A1A5021261B50226A222233
:103A700021C0E1FF22C0E2FF1FC0E7FF202A202A69
:103A80001F2AC7D7000E17241A6E010E18201B6EAE
:103A90001A501E261B501C6A1C221EC0E1FF1CC0AF
:103AA000E2FFFF0EE76E100E1526D8B0162A100E94
:103AB0001726D8B0182A192A192A142A6ED7040EE4
:103AC0001126102A5AD7ECCF25F0ECCF24F0ECCFFA
:103AD00023F0ECCF22F0ECCF21F0ECCF20F0ECCFB4
:103AE0001FF0ECCF1EF0ECCF1DF0ECCF1CF0ECCFB4
:103AF0001BF0ECCF1AF0ECCF19F0ECCF18F0ECCFB4
:103B000017F0ECCF16F0ECCF15F0ECCF14F0ECCFB3
:103B100013F0ECCF12F0ECCF11F0ECCF10F0ECCFB3
:103B2000D9FF120010C0EDFF11C0EDFF0001C05120
:103B3000C6EC16F0106E1050ED6E000E2EEC22F05A
:103B4000E92A000EED6E010E2EEC22F0E92A000E9D
:103B5000ED6E020E2EEC22F0E92A040E0001C05D8B
:103B6000D8B0D3D012C0EDFF13C0EDFF136AC0353B
:103B70001336E8341336FC0B126E000EFB6E3B0E50
:103B8000FA6E9A0E12261350FA22D8B0FB2A12505F
:103B9000ECCF13F0ECCF12F0F96ED5EF1DF0F4EF8F
:103BA0001DF012EF1EF048EF1EF0080E0001C15D7F
:103BB0000CE20001C051C6EC16F0106E1050ED6E14
:103BC000010E2EEC22F0E92AA0D0F80E0001C0254B
:103BD000106E1050C6EC16F0106E1050ED6E020E06
:103BE0002EEC22F0E92A91D0080E0001C25D0BE212
:103BF000C251C6EC16F0106E1050ED6E010E2EEC98
:103C000022F0E92A82D0F80E0001C225106E105071
:103C1000C6EC16F0106E1050ED6E020E2EEC22F077
:103C2000E92A73D00001C251040DF3CF10F0800EC9
:103C30001026000E116A112210C0E1FF11C0E2FF30
:103C4000E6CF10F0E7CF11F0116A1050ED6E010EC3
:103C50002EEC22F0E92A0001C251040DF3CF10F03E
:103C6000800E1026000E116A112210C0E1FF11C053
:103C7000E2FFE6CF10F0E7CF11F01150106E116A9D
:103C8000116A1050ED6E020E2EEC22F0E92A3DD0A2
:103C90000001C251040DF3CF10F0800E1026000E6B
:103CA000116A1122020E1026D8B0112A10C0E1FFAD
:103CB00011C0E2FFE6CF10F0E7CF11F0116A10500B
:103CC000ED6E010E2EEC22F0E92A0001C251040D26
:103CD000F3CF10F0800E1026000E116A1122020E92
:103CE0001026D8B0112A10C0E1FF11C0E2FFE6CFC4
:103CF00010F0E7CF11F01150106E116A116A1050D8
:103D0000ED6E020E2EEC22F0E92AECCF11F0ECCF92
:103D100010F0120010C0EDFF11C0EDFF12C0EDFF5A
:103D200013C0EDFF14C0EDFF15C0EDFF16C0EDFF91
:103D300017C0EDFF18C0EDFF19C0EDFF1AC0EDFF71
:103D40001BC0EDFF106A116A126A136A146A100E22
:103D5000105CD8B051D0800E1124156E166A000E7A
:103D60001622800E1124176E186A000E1822020EF9
:103D70001726D8B0182A740E1224196E1A6A420E29
:103D80001A221B6A000E1B2219C0F6FF1AC0F7FF89
:103D90001BC0F8FF0900F5CF19F00900F5CF1AF0A4
:103DA00017C0E1FF18C0E2FF19C0E6FF1AC0E7FF25
:103DB00015C0E1FF16C0E2FF19C0E6FF1AC0E7FF19
:103DC000000E1324156E010E1420166E15C0E1FFAF
:103DD00016C0E2FF10C0E7FF15C0E1FF16C0E2FF0A
:103DE000FF0EE76E040E1126122A122A100E132659
:103DF000D8B0142A102AABD70001C1516DEC20F0C5
:103E0000ECCF1BF0ECCF1AF0ECCF19F0ECCF18F0A0
:103E1000ECCF17F0ECCF16F0ECCF15F0ECCF14F0A0
:103E2000ECCF13F0ECCF12F0ECCF11F0ECCF10F0A0
:103E3000120003EE7FF023EE7FF0F8EF20F003EEA8
:103E40007FF023EE7FF074EF22F023EE3FF0E9CF16
:103E5000DDFFEACFDDFF03EE3DF0A2EC20F03FC333
:103E6000E9FF3EC3EAFF1200120003EE7FF023EEEB
:103E70007FF076EF22F003EE7FF023EE7FF075EF18
:103E800022F003EE7FF023EE7FF005C0EDFF04C0CB
:103E9000EDFF03509FEF1FF003EE7FF023EE7FF066
:103EA00005C0EDFF04C0EDFF03C0EDFFED6E1AEF9E
:103EB00022F003EE7FF023EE7FF073EF22F003EEAB
:103EC0007FF023EE7FF00CEF20F01200120003EEE3
:103ED0007FF023EE7FF004C0EDFF80EF19F003EEDA
:103EE0007FF023EE7FF004C0EDFF13EF22F023EE0E
:103EF0003FF0E9CFDDFFEACFDDFF03EE3DF072ECEE
:103F000022F03FC3E9FF3EC3EAFF120023EE3FF079
:103F1000E9CFDDFFEACFDDFF03EE3DF071EC22F0EB
:103F20003FC3E9FF3EC3EAFF120003EE7FF023EE3A
:103F30007FF005C0EDFF04C0EDFF0CEF22F0D9CFFC
:103F4000EDFFE9CFD9FF10C0EDFF11C0EDFF12C0AA
:103F5000EDFF13C0EDFF14C0EDFF15C0EDFF16C05F
:103F6000EDFF17C0EDFF106E020EDBCF11F0030E58
:103F7000DBCF12F0F00E1014136E0F0E101613504C
:103F8000C00A05E01350D00A02E0146A02D0010E04
:103F9000146E1450D880E866D890146A1436156AE6
:103FA000100E155C26E21050100DF3CF16F0F4CF72
:103FB00017F0000E1626010E172215501626E86A75
:103FC000172216C0E1FF17C0E2FFE7CF16F0165028
:103FD000FF0A0FE013501626165024EC16F011506D
:103FE00024EC16F0145003E0125024EC16F0152ABD
:103FF000D7D7ECCF17F0ECCF16F0ECCF15F0ECCF15
:1040000014F0ECCF13F0ECCF12F0ECCF11F0ECCFBA
:1040100010F0ECCFD9FF1200D9CFEDFFE9CFD9FFD7
:1040200010C0EDFF11C0EDFF106EF00E105CD870E7
:10403000116A11361150D8A43DD0105024EC16F05E
:10404000115035E1F40E105C32E2100E1024116EA6
:1040500012C0EDFF13C0EDFF136A11341336E834BC
:104060001336FC0B126E000EFB6E400EFA6E860EBF
:1040700012261350FA22D8B0FB2A1250ECCF13F0BC
:10408000ECCF12F0F96E53EF20F04BEF20F04FEF32
:1040900020F04BEF20F0010E0001C46F17D0020E8C
:1040A0000001C46F13D0FF0E0001C46F0FD00001D8
:1040B000C46B0CD00001C45109E0105024EC16F080
:1040C0000001C451FF0A02E00001C407ECCF11F067
:1040D000ECCF10F0ECCFD9FF1200D9CFEDFFE9CF34
:1040E000D9FF10C0EDFF11C0EDFF12C0EDFF13C0EE
:1040F000EDFF14C0EDFF106E1050400DF3CF10F027
:10410000F4CF11F0000E136E800E126E800E146E3E
:104110001450ED6E1350ED6E1250ED6E1150ED6EA9
:10412000105064EC21F0040EE926ECCF14F0ECCF33
:1041300013F0ECCF12F0ECCF11F0ECCF10F0ECCF8D
:10414000D9FF120010C0EDFF0001C32B3C0EC35D70
:104150002AE3C3513C0A1FE18AEC1EF00001C15161
:1041600009E1106A100E105C09E210506DEC20F0AD
:10417000102AF8D70001C1516DEC20F0FF0EED6E52
:10418000010E2EEC22F0E92AFF0EED6E020E2EEC4F
:1041900022F0E92A08D0430E0001C35D04E3C0EC1D
:1041A00016F092EC1DF0ECCF10F01200F66EE9CF95
:1041B000D9FFDCCFF7FFDC50E8BE08D0F86E09006D
:1041C000F55003E094EC16F0FAD71200D9CF06F0C0
:1041D000DACF07F0F6CFD9FFF7CFDAFFDE5003E0F2
:1041E00094EC16F0FBD706C0D9FF07C0DAFF120027
:1041F000010E80EC16F0030E78EC16F00A0E12ECAD
:1042000017F0000EEEEC16F0000E69EC22F0000143
:10421000C06F010E69EC22F00001C16F020E69EC63
:1042200022F00001C26F0001C15171EC1CF092EC50
:104230001DF01200E9CFD9FF0A6EDCCFE1FFDCCF21
:10424000E2FFDC52DCCF03F0DCCF04F0E6CF06F077
:10425000E6CF07F010EE06F00A50DCEC16F0E9CFDE
:10426000D9FFDCCFE1FFDCCFE2FF06C0E6FF07C0ED
:10427000E6FF120001000200040008001000200008
:10428000400080000001000200040008001000202F
:1042900000400080F66EE9CFD9FFDCCFF7FFDCCF1E
:1042A000F8FFDCCFE1FFDCCFE2FFB4EF16F0F66EF3
:1042B000E9CFD9FFDCCFF7FFDCCFF8FFDCCFE1FFA0
:1042C000DCCFE2FFB6EF16F0036EE9CFD9FFDCCF0B
:1042D00004F0DCCFE1FFDCCFE2FFF2EF16F0036E7B
:1042E000E9CFD9FFDCCF04F0DCCFE1FFDCCFE2FF88
:1042F00018EF17F0E9CFD9FFDCCFF8FFDCCFF7FFDD
:10430000DCCFF6FF9CEF16F0E9CFD9FF036EDCCFD0
:1043100004F0DCCF05F0DC50A8EF16F0E9CFD9FFB0
:10432000DCCFF6FFDCCFF7FFDCCFF8FFE4EF16F0D1
:10433000F66EE9CFD9FFDCCFF7FFDCCFF8FF9AEFBD
:1043400016F0F66EE9CFD9FFDCCFF7FFDCCFF8FF30
:104350009EEF16F0F66EE9CFD9FFDCCFF7FFDCCF8A
:10436000F8FFE6EF16F0F66EE9CFD9FFDCCFF7FFE6
:10437000DCCFF8FFAAEF16F0A96EE9CFD9FFDCCFAA
:10438000E1FFDCCFE2FF1AEF17F0A96EE9CFD9FF0A
:10439000DCCFE1FFDCCFE2FF1CEF17F0E9CFD9FF64
:1043A000DCCF03F0DCCF04F052EF16F0E9CFD9FFF9
:1043B000DCCF03F0DCCF04F074EF16F0E9CFD9FFC7
:1043C000DCCF03F0DCCF04F0A4EF16F0036EE9CFEE
:1043D000D9FFDCCF04F0DC50BAEF16F0E9CFD9FFFB
:1043E000DCCF03F0DCCF04F0BCEF16F0E9CFD9FF4F
:1043F000DCCF03F0DCCF04F01EEF17F0036EE9CF43
:10440000D9FFDCCF04F0B8EF16F012001200120052
:104410001200120012001200D9CFEDFFE9CFD9FF30
:10442000ECCFD9FF1200D9CFEDFFE9CFD9FFECCF08
:10443000D9FF1200D9CFEDFFE9CFD9FFECCFD9FFDB
:1044400012000100D8440000C00000000500000078
:10445000E9CFD9FFDCCF03F060EF16F0E9CFD9FF49
:10446000DCCF03F068EF16F0E9CFD9FFDCCF03F023
:104470006AEF16F0E9CFD9FFDCCF03F06EEF16F04C
:10448000E9CFD9FFDCCF03F072EF16F0E9CFD9FF07
:10449000DCCF03F0F6EF16F0E9CFD9FFDCCF03F065
:1044A000F8EF16F0E9CFD9FFDCCF03F0AEEF16F04E
:1044B000A96EE9CFD9FFDC50B2EF16F0E9CFD9FFF2
:1044C000DCCF03F0F4EF16F03AEC16F004C0F3FF83
:1044D0001200A96EB0EF16F0000000000000A6EF79
:0E44E00016F01200120012001200120012005C
:00000001FF
