:020000040000FA
:1030000040EF19F046EF19F04CEF19F05BEF19F0B3
:103010005CEF19F062EF19F09EEF19F0ADEF19F0C7
:103020008EEF19F096EF19F0BCEF19F086EF19F05A
:1030300080EF19F068EF19F073EF19F0C3EF1AF091
:10304000C4EF1AF0C5EF1AF0C6EF1AF08DEF19F0C1
:103050008CEF19F0C7EF1AF0C8EF1AF0C9EF1AF0A9
:103060001200000012000000120000001200000018
:103070001200000012000000120000001200000008
:10308000FFFFFFFFFFFFFFFFFFFFFFFFFFFFFFFF50
:10309000FFFFFFFFFFFFFFFFFFFFFFFFFFFFFFFF40
:1032800003EE7FF023EE7FF042EF1BF003EE7FF0C2
:1032900023EE7FF041EF1BF023EE3FF0E9CFDDFF9F
:1032A000EACFDDFF03EE3DF040EC1BF03FC3E9FF4A
:1032B0003EC3EAFF1200120003EE7FF023EE7FF020
:1032C0003EEF1BF003EE7FF023EE7FF03DEF1BF0AF
:1032D00003EE7FF023EE7FF005C0EDFF04C0EDFFAD
:1032E0000350EDEF1AF003EE7FF023EE7FF005C000
:1032F000EDFF04C0EDFF03C0EDFFED6EE6EF1AF049
:1033000003EE7FF023EE7FF03CEF1BF003EE7FF047
:1033100023EE7FF0DFEF1AF01200120003EE7FF0D1
:1033200023EE7FF004C0EDFFD8EF1AF003EE7FF03C
:1033300023EE7FF004C0EDFFD1EF1AF023EE3FF053
:10334000E9CFDDFFEACFDDFF03EE3DF03BEC1BF004
:103350003FC3E9FF3EC3EAFF120023EE3FF0E9CF8F
:10336000DDFFEACFDDFF03EE3DF03AEC1BF03FC39B
:10337000E9FF3EC3EAFF120003EE7FF023EE7FF089
:1033800005C0EDFF04C0EDFFCAEF1AF0F66EE9CFFD
:10339000D9FFDCCFF7FFDC50E8BE08D0F86E09009B
:1033A000F55003E094EC16F0FAD71200D9CF06F0EE
:1033B000DACF07F0F6CFD9FFF7CFDAFFDE5003E020
:1033C00094EC16F0FBD706C0D9FF07C0DAFF120055
:1033D000E9CFD9FF0A6EDCCFE1FFDCCFE2FFDC52A0
:1033E000DCCF03F0DCCF04F0E6CF06F0E6CF07F049
:1033F00010EE06F00A50DCEC16F0E9CFD9FFDCCF76
:10340000E1FFDCCFE2FF06C0E6FF07C0E6FF1200E7
:10341000F66EE9CFD9FFDCCFF7FFDCCFF8FFDCCFCA
:10342000E1FFDCCFE2FFB4EF16F0F66EE9CFD9FF93
:10343000DCCFF7FFDCCFF8FFDCCFE1FFDCCFE2FF32
:10344000B6EF16F0036EE9CFD9FFDCCF04F0DCCF86
:10345000E1FFDCCFE2FFF2EF16F0036EE9CFD9FF18
:10346000DCCF04F0DCCFE1FFDCCFE2FF18EF17F098
:10347000E9CFD9FFDCCFF8FFDCCFF7FFDCCFF6FFD9
:103480009CEF16F0E9CFD9FF036EDCCF04F0DCCF60
:1034900005F0DC50A8EF16F0E9CFD9FFDCCFF6FF3E
:1034A000DCCFF7FFDCCFF8FFE4EF16F0F66EE9CFE4
:1034B000D9FFDCCFF7FFDCCFF8FF9AEF16F0F66EFE
:1034C000E9CFD9FFDCCFF7FFDCCFF8FF9EEF16F096
:1034D000F66EE9CFD9FFDCCFF7FFDCCFF8FFE6EFE0
:1034E00016F0F66EE9CFD9FFDCCFF7FFDCCFF8FF9F
:1034F000AAEF16F0A96EE9CFD9FFDCCFE1FFDCCF50
:10350000E2FF1AEF17F0A96EE9CFD9FFDCCFE1FF98
:10351000DCCFE2FF1CEF17F0E9CFD9FFDCCF03F0DF
:10352000DCCF04F052EF16F0E9CFD9FFDCCF03F087
:10353000DCCF04F074EF16F0E9CFD9FFDCCF03F055
:10354000DCCF04F0A4EF16F0036EE9CFD9FFDCCF97
:1035500004F0DC50BAEF16F0E9CFD9FFDCCF03F06E
:10356000DCCF04F0BCEF16F0E9CFD9FFDCCF03F0DD
:10357000DCCF04F01EEF17F0036EE9CFD9FFDCCFEC
:1035800004F0B8EF16F01200120012001200120040
:1035900012001200D9CFEDFFE9CFD9FFECCFD9FF50
:1035A0001200D9CFEDFFE9CFD9FFECCFD9FF120040
:1035B000D9CFEDFFE9CFD9FFECCFD9FF1200D9CF9A
:1035C000EDFFE9CFD9FFECCFD9FF1200D9CFEDFF46
:1035D000E9CFD9FFECCFD9FF1200D9CFEDFFE9CF6A
:1035E000D9FFECCFD9FF1200E9CFD9FFDCCF03F030
:1035F00060EF16F0E9CFD9FFDCCF03F068EF16F0EB
:10360000E9CFD9FFDCCF03F06AEF16F0E9CFD9FF9D
:10361000DCCF03F06EEF16F0E9CFD9FFDCCF03F07B
:1036200072EF16F0E9CFD9FFDCCF03F0F6EF16F01A
:10363000E9CFD9FFDCCF03F0F8EF16F0E9CFD9FFDF
:10364000DCCF03F0AEEF16F0A96EE9CFD9FFDC5066
:10365000B2EF16F0E9CFD9FFDCCF03F0F4EF16F0AC
:103660003AEC16F004C0F3FF1200A96EB0EF16F0AA
:10367000A6EF16F012001200120012001200120043
:063680001200120012000E
:00000001FF
