:020000040000FA
:1030000010EF1AF016EF1AF01CEF1AF02BEF1AF06F
:103010002CEF1AF032EF1AF06EEF1AF07DEF1AF083
:103020005EEF1AF066EF1AF08CEF1AF056EF1AF016
:1030300050EF1AF038EF1AF043EF1AF0F0EF1BF0F0
:10304000F1EF1BF0F2EF1BF0F3EF1BF05DEF1AF066
:103050005CEF1AF0F4EF1BF0F5EF1BF0F6EF1BF04E
:103060001200000012000000120000001200000018
:103070001200000012000000120000001200000008
:10308000FFFFFFFFFFFFFFFFFFFFFFFFFFFFFFFF50
:10309000FFFFFFFFFFFFFFFFFFFFFFFFFFFFFFFF40
:103280000081028104810681FFFF00000000000030
:10329000000000000000000000000000000000002E
:1032A000000000000000000000000000000000001E
:1032B000000000000000000000000000000000000E
:1032C00000000000000000000000000000000000FE
:1032D00000000000000000000000000000000000EE
:1032E00000000000000000000000000000000000DE
:1032F00000000000000000000000000000000000CE
:10330000D9CFEDFFE9CFD9FF10C0EDFF11C0EDFF20
:1033100012C0EDFF13C0EDFF14C0EDFF15C0EDFFAF
:1033200016C0EDFF17C0EDFF18C0EDFF106E020EC6
:10333000DBCF11F01150800F7F0F2FE3800E102490
:10334000126E136A000E132212C0E1FF13C0E2FFD7
:10335000E7CF14F014C015F0166A15507F08156EEB
:10336000000E165611C017F0186A11BE18681850D2
:10337000800FF36E1650800FF35C02E11550175C5E
:1033800003E21150142602D07F0E146E12C0E1FF2A
:1033900013C0E2FF14C0E7FF2BD0800E1026000EF2
:1033A000126A122210C0E1FF12C0E2FFE7CF13F051
:1033B00013C014F0156A151E146CD8B4152A11C068
:1033C00016F0176A11BE17681550800FF36E17506C
:1033D000800FF35C02E11650145C03E213501126D7
:1033E00001D0116A10C0E1FF12C0E2FF11C0E7FF77
:1033F000010E0001846FECCF18F0ECCF17F0ECCF8A
:1034000016F0ECCF15F0ECCF14F0ECCF13F0ECCFBE
:1034100012F0ECCF11F0ECCF10F0ECCFD9FF12008E
:1034200003EE7FF023EE7FF096EF1AF003EE7FF0CD
:1034300023EE7FF077EF1CF023EE3FF0E9CFDDFFC6
:10344000EACFDDFF03EE3DF076EC1CF03FC3E9FF71
:103450003EC3EAFF1200120003EE7FF023EE7FF07E
:1034600068EF1CF003EE7FF023EE7FF05DEF1CF0C1
:1034700003EE7FF023EE7FF005C0EDFF04C0EDFF0B
:10348000035013EF1CF003EE7FF023EE7FF005C036
:10349000EDFF04C0EDFF03C0EDFFED6E0CEF1CF07F
:1034A00003EE7FF023EE7FF075EF1CF003EE7FF06C
:1034B00023EE7FF005EF1CF01200120003EE7FF008
:1034C00023EE7FF004C0EDFFFEEF1BF003EE7FF074
:1034D00023EE7FF004C0EDFF80EF19F023EE3FF004
:1034E000E9CFDDFFEACFDDFF03EE3DF074EC1CF029
:1034F0003FC3E9FF3EC3EAFF120023EE3FF0E9CFEE
:10350000DDFFEACFDDFF03EE3DF073EC1CF03FC3BF
:10351000E9FF3EC3EAFF120003EE7FF023EE7FF0E7
:1035200005C0EDFF04C0EDFFF7EF1BF010C0EDFF8D
:1035300011C0EDFF12C0EDFF010E80EC16F0010E80
:1035400078EC16F0140E12EC17F0106A040E105CF2
:1035500017E2800E1024116E126A000E122211C0A2
:10356000E1FF12C0E2FF000EE76E040EED6E020EE8
:10357000ED6E1050C1EC1BF0020EE926102AE6D7C2
:10358000949A828AECCF12F0ECCF11F0ECCF10F0CD
:10359000120010C0EDFF11C0EDFF12C0EDFF000ED4
:1035A00088EC16F0106A040E105C14E2800E1024F1
:1035B000116E126A000E122211C0E1FF12C0E2FF6A
:1035C000E7CF11F0115092EC16F0200E94EC16F0AB
:1035D000102AE9D70001846BECCF12F0ECCF11F088
:1035E000ECCF10F01200F66EE9CFD9FFDCCFF7FF79
:1035F000DC50E8BE08D0F86E0900F55003E094EC0A
:1036000016F0FAD71200D9CF06F0DACF07F0F6CFCE
:10361000D9FFF7CFDAFFDE5003E094EC16F0FBD7CA
:1036200006C0D9FF07C0DAFF1200E9CFD9FF0A6E42
:10363000DCCFE1FFDCCFE2FFDC52DCCF03F0DCCFFC
:1036400004F0E6CF06F0E6CF07F010EE06F00A50E1
:10365000DCEC16F0E9CFD9FFDCCFE1FFDCCFE2FFF5
:1036600006C0E6FF07C0E6FF1200F66EE9CFD9FFFD
:10367000DCCFF7FFDCCFF8FFDCCFE1FFDCCFE2FFF0
:10368000B4EF16F0F66EE9CFD9FFDCCFF7FFDCCF51
:10369000F8FFDCCFE1FFDCCFE2FFB6EF16F0036E00
:1036A000E9CFD9FFDCCF04F0DCCFE1FFDCCFE2FFD4
:1036B000F2EF16F0036EE9CFD9FFDCCF04F0DCCFD8
:1036C000E1FFDCCFE2FF18EF17F0E9CFD9FFDCCF45
:1036D000F8FFDCCFF7FFDCCFF6FF9CEF16F0E9CF69
:1036E000D9FF036EDCCF04F0DCCF05F0DC50A8EF8F
:1036F00016F0E9CFD9FFDCCFF6FFDCCFF7FFDCCF48
:10370000F8FFE4EF16F0F66EE9CFD9FFDCCFF7FF54
:10371000DCCFF8FF9AEF16F0F66EE9CFD9FFDCCFD9
:10372000F7FFDCCFF8FF9EEF16F0F66EE9CFD9FF7A
:10373000DCCFF7FFDCCFF8FFE6EF16F0F66EE9CF4F
:10374000D9FFDCCFF7FFDCCFF8FFAAEF16F0A96EA8
:10375000E9CFD9FFDCCFE1FFDCCFE2FF1AEF17F0B2
:10376000A96EE9CFD9FFDCCFE1FFDCCFE2FF1CEF90
:1037700017F0E9CFD9FFDCCF03F0DCCF04F052EF34
:1037800016F0E9CFD9FFDCCF03F0DCCF04F074EF03
:1037900016F0E9CFD9FFDCCF03F0DCCF04F0A4EFC3
:1037A00016F0036EE9CFD9FFDCCF04F0DC50BAEF9E
:1037B00016F0E9CFD9FFDCCF03F0DCCF04F0BCEF8B
:1037C00016F0E9CFD9FFDCCF03F0DCCF04F01EEF19
:1037D00017F0036EE9CFD9FFDCCF04F0B8EF16F095
:1037E0001200120012001200120012001200D9CFB3
:1037F000EDFFE9CFD9FFECCFD9FF1200D9CFEDFF14
:10380000E9CFD9FFECCFD9FF1200D9CFEDFFE9CF37
:10381000D9FFECCFD9FF1200D9CFEDFFE9CFD9FF07
:10382000ECCFD9FF1200D9CFEDFFE9CFD9FFECCF14
:10383000D9FF12000100E4380000840000000100FC
:103840000000E9CFD9FFDCCF03F060EF16F0E9CF3D
:10385000D9FFDCCF03F068EF16F0E9CFD9FFDCCF5A
:1038600003F06AEF16F0E9CFD9FFDCCF03F06EEF7B
:1038700016F0E9CFD9FFDCCF03F072EF16F0E9CFF5
:10388000D9FFDCCF03F0F6EF16F0E9CFD9FFDCCF9C
:1038900003F0F8EF16F0E9CFD9FFDCCF03F0AEEF7D
:1038A00016F0A96EE9CFD9FFDC50B2EF16F0E9CFE0
:1038B000D9FFDCCF03F0F4EF16F00001845102E0F1
:1038C000C9EC1AF012003AEC16F004C0F3FF120033
:1038D00082EC16F0C9EC1AF01200A96EB0EF16F0E7
:1038E000A6EF16F0000012001200120012001200E3
:00000001FF
